{
  "contractName": "TickenEvent",
  "abi": [
    {
      "inputs": [],
      "stateMutability": "nonpayable",
      "type": "constructor"
    },
    {
      "anonymous": false,
      "inputs": [
        {
          "indexed": true,
          "internalType": "address",
          "name": "owner",
          "type": "address"
        },
        {
          "indexed": true,
          "internalType": "address",
          "name": "approved",
          "type": "address"
        },
        {
          "indexed": true,
          "internalType": "uint256",
          "name": "tokenId",
          "type": "uint256"
        }
      ],
      "name": "Approval",
      "type": "event"
    },
    {
      "anonymous": false,
      "inputs": [
        {
          "indexed": true,
          "internalType": "address",
          "name": "owner",
          "type": "address"
        },
        {
          "indexed": true,
          "internalType": "address",
          "name": "operator",
          "type": "address"
        },
        {
          "indexed": false,
          "internalType": "bool",
          "name": "approved",
          "type": "bool"
        }
      ],
      "name": "ApprovalForAll",
      "type": "event"
    },
    {
      "anonymous": false,
      "inputs": [
        {
          "indexed": true,
          "internalType": "address",
          "name": "previousOwner",
          "type": "address"
        },
        {
          "indexed": true,
          "internalType": "address",
          "name": "newOwner",
          "type": "address"
        }
      ],
      "name": "OwnershipTransferred",
      "type": "event"
    },
    {
      "anonymous": false,
      "inputs": [
        {
          "indexed": false,
          "internalType": "address",
          "name": "account",
          "type": "address"
        }
      ],
      "name": "Paused",
      "type": "event"
    },
    {
      "anonymous": false,
      "inputs": [
        {
          "indexed": false,
          "internalType": "address",
          "name": "owner",
          "type": "address"
        },
        {
          "indexed": false,
          "internalType": "string",
          "name": "section",
          "type": "string"
        },
        {
          "indexed": true,
          "internalType": "uint256",
          "name": "tokenID",
          "type": "uint256"
        }
      ],
      "name": "TicketMinted",
      "type": "event"
    },
    {
      "anonymous": false,
      "inputs": [
        {
          "indexed": false,
          "internalType": "address",
          "name": "from",
          "type": "address"
        },
        {
          "indexed": false,
          "internalType": "address",
          "name": "to",
          "type": "address"
        },
        {
          "indexed": true,
          "internalType": "uint256",
          "name": "tokenID",
          "type": "uint256"
        }
      ],
      "name": "TicketTransferred",
      "type": "event"
    },
    {
      "anonymous": false,
      "inputs": [
        {
          "indexed": true,
          "internalType": "address",
          "name": "from",
          "type": "address"
        },
        {
          "indexed": true,
          "internalType": "address",
          "name": "to",
          "type": "address"
        },
        {
          "indexed": true,
          "internalType": "uint256",
          "name": "tokenId",
          "type": "uint256"
        }
      ],
      "name": "Transfer",
      "type": "event"
    },
    {
      "anonymous": false,
      "inputs": [
        {
          "indexed": false,
          "internalType": "address",
          "name": "account",
          "type": "address"
        }
      ],
      "name": "Unpaused",
      "type": "event"
    },
    {
      "inputs": [
        {
          "internalType": "address",
          "name": "to",
          "type": "address"
        },
        {
          "internalType": "uint256",
          "name": "tokenId",
          "type": "uint256"
        }
      ],
      "name": "approve",
      "outputs": [],
      "stateMutability": "nonpayable",
      "type": "function"
    },
    {
      "inputs": [
        {
          "internalType": "address",
          "name": "owner",
          "type": "address"
        }
      ],
      "name": "balanceOf",
      "outputs": [
        {
          "internalType": "uint256",
          "name": "",
          "type": "uint256"
        }
      ],
      "stateMutability": "view",
      "type": "function"
    },
    {
      "inputs": [
        {
          "internalType": "uint256",
          "name": "tokenId",
          "type": "uint256"
        }
      ],
      "name": "getApproved",
      "outputs": [
        {
          "internalType": "address",
          "name": "",
          "type": "address"
        }
      ],
      "stateMutability": "view",
      "type": "function"
    },
    {
      "inputs": [
        {
          "internalType": "address",
          "name": "owner",
          "type": "address"
        },
        {
          "internalType": "address",
          "name": "operator",
          "type": "address"
        }
      ],
      "name": "isApprovedForAll",
      "outputs": [
        {
          "internalType": "bool",
          "name": "",
          "type": "bool"
        }
      ],
      "stateMutability": "view",
      "type": "function"
    },
    {
      "inputs": [],
      "name": "name",
      "outputs": [
        {
          "internalType": "string",
          "name": "",
          "type": "string"
        }
      ],
      "stateMutability": "view",
      "type": "function"
    },
    {
      "inputs": [],
      "name": "owner",
      "outputs": [
        {
          "internalType": "address",
          "name": "",
          "type": "address"
        }
      ],
      "stateMutability": "view",
      "type": "function"
    },
    {
      "inputs": [
        {
          "internalType": "uint256",
          "name": "tokenId",
          "type": "uint256"
        }
      ],
      "name": "ownerOf",
      "outputs": [
        {
          "internalType": "address",
          "name": "",
          "type": "address"
        }
      ],
      "stateMutability": "view",
      "type": "function"
    },
    {
      "inputs": [],
      "name": "paused",
      "outputs": [
        {
          "internalType": "bool",
          "name": "",
          "type": "bool"
        }
      ],
      "stateMutability": "view",
      "type": "function"
    },
    {
      "inputs": [],
      "name": "renounceOwnership",
      "outputs": [],
      "stateMutability": "nonpayable",
      "type": "function"
    },
    {
      "inputs": [
        {
          "internalType": "address",
          "name": "from",
          "type": "address"
        },
        {
          "internalType": "address",
          "name": "to",
          "type": "address"
        },
        {
          "internalType": "uint256",
          "name": "tokenId",
          "type": "uint256"
        }
      ],
      "name": "safeTransferFrom",
      "outputs": [],
      "stateMutability": "nonpayable",
      "type": "function"
    },
    {
      "inputs": [
        {
          "internalType": "address",
          "name": "from",
          "type": "address"
        },
        {
          "internalType": "address",
          "name": "to",
          "type": "address"
        },
        {
          "internalType": "uint256",
          "name": "tokenId",
          "type": "uint256"
        },
        {
          "internalType": "bytes",
          "name": "data",
          "type": "bytes"
        }
      ],
      "name": "safeTransferFrom",
      "outputs": [],
      "stateMutability": "nonpayable",
      "type": "function"
    },
    {
      "inputs": [
        {
          "internalType": "address",
          "name": "operator",
          "type": "address"
        },
        {
          "internalType": "bool",
          "name": "approved",
          "type": "bool"
        }
      ],
      "name": "setApprovalForAll",
      "outputs": [],
      "stateMutability": "nonpayable",
      "type": "function"
    },
    {
      "inputs": [
        {
          "internalType": "bytes4",
          "name": "interfaceId",
          "type": "bytes4"
        }
      ],
      "name": "supportsInterface",
      "outputs": [
        {
          "internalType": "bool",
          "name": "",
          "type": "bool"
        }
      ],
      "stateMutability": "view",
      "type": "function"
    },
    {
      "inputs": [],
      "name": "symbol",
      "outputs": [
        {
          "internalType": "string",
          "name": "",
          "type": "string"
        }
      ],
      "stateMutability": "view",
      "type": "function"
    },
    {
      "inputs": [
        {
          "internalType": "uint256",
          "name": "",
          "type": "uint256"
        }
      ],
      "name": "tickets",
      "outputs": [
        {
          "internalType": "address",
          "name": "owner",
          "type": "address"
        },
        {
          "internalType": "enum TickenEvent.Status",
          "name": "status",
          "type": "uint8"
        },
        {
          "internalType": "string",
          "name": "section",
          "type": "string"
        },
        {
          "internalType": "uint256",
          "name": "tokenID",
          "type": "uint256"
        }
      ],
      "stateMutability": "view",
      "type": "function"
    },
    {
      "inputs": [
        {
          "internalType": "uint256",
          "name": "index",
          "type": "uint256"
        }
      ],
      "name": "tokenByIndex",
      "outputs": [
        {
          "internalType": "uint256",
          "name": "",
          "type": "uint256"
        }
      ],
      "stateMutability": "view",
      "type": "function"
    },
    {
      "inputs": [
        {
          "internalType": "address",
          "name": "owner",
          "type": "address"
        },
        {
          "internalType": "uint256",
          "name": "index",
          "type": "uint256"
        }
      ],
      "name": "tokenOfOwnerByIndex",
      "outputs": [
        {
          "internalType": "uint256",
          "name": "",
          "type": "uint256"
        }
      ],
      "stateMutability": "view",
      "type": "function"
    },
    {
      "inputs": [
        {
          "internalType": "uint256",
          "name": "tokenId",
          "type": "uint256"
        }
      ],
      "name": "tokenURI",
      "outputs": [
        {
          "internalType": "string",
          "name": "",
          "type": "string"
        }
      ],
      "stateMutability": "view",
      "type": "function"
    },
    {
      "inputs": [],
      "name": "totalSupply",
      "outputs": [
        {
          "internalType": "uint256",
          "name": "",
          "type": "uint256"
        }
      ],
      "stateMutability": "view",
      "type": "function"
    },
    {
      "inputs": [
        {
          "internalType": "address",
          "name": "from",
          "type": "address"
        },
        {
          "internalType": "address",
          "name": "to",
          "type": "address"
        },
        {
          "internalType": "uint256",
          "name": "tokenId",
          "type": "uint256"
        }
      ],
      "name": "transferFrom",
      "outputs": [],
      "stateMutability": "nonpayable",
      "type": "function"
    },
    {
      "inputs": [
        {
          "internalType": "address",
          "name": "newOwner",
          "type": "address"
        }
      ],
      "name": "transferOwnership",
      "outputs": [],
      "stateMutability": "nonpayable",
      "type": "function"
    },
    {
      "inputs": [],
      "name": "raiseAnchors",
      "outputs": [],
      "stateMutability": "nonpayable",
      "type": "function"
    },
    {
      "inputs": [],
      "name": "totalTickets",
      "outputs": [
        {
          "internalType": "uint256",
          "name": "count",
          "type": "uint256"
        }
      ],
      "stateMutability": "view",
      "type": "function"
    },
    {
      "inputs": [
        {
          "internalType": "address",
          "name": "to",
          "type": "address"
        },
        {
          "internalType": "uint256",
          "name": "tokenID",
          "type": "uint256"
        },
        {
          "internalType": "string",
          "name": "section",
          "type": "string"
        }
      ],
      "name": "mintTicket",
      "outputs": [],
      "stateMutability": "nonpayable",
      "type": "function"
    },
    {
      "inputs": [
        {
          "internalType": "address",
          "name": "from",
          "type": "address"
        },
        {
          "internalType": "address",
          "name": "to",
          "type": "address"
        },
        {
          "internalType": "uint256",
          "name": "tokenID",
          "type": "uint256"
        }
      ],
      "name": "transferTicket",
      "outputs": [],
      "stateMutability": "nonpayable",
      "type": "function"
    },
    {
      "inputs": [
        {
          "internalType": "uint256[]",
          "name": "tokenIDs",
          "type": "uint256[]"
        }
      ],
      "name": "scanBatch",
      "outputs": [],
      "stateMutability": "nonpayable",
      "type": "function"
    },
    {
      "inputs": [
        {
          "internalType": "string",
          "name": "section",
          "type": "string"
        }
      ],
      "name": "getSectionTickets",
      "outputs": [
        {
          "components": [
            {
              "internalType": "address",
              "name": "owner",
              "type": "address"
            },
            {
              "internalType": "enum TickenEvent.Status",
              "name": "status",
              "type": "uint8"
            },
            {
              "internalType": "string",
              "name": "section",
              "type": "string"
            },
            {
              "internalType": "uint256",
              "name": "tokenID",
              "type": "uint256"
            }
          ],
          "internalType": "struct TickenEvent.Ticket[]",
          "name": "",
          "type": "tuple[]"
        }
      ],
      "stateMutability": "view",
      "type": "function"
    },
    {
      "inputs": [
        {
          "internalType": "address",
          "name": "owner",
          "type": "address"
        }
      ],
      "name": "getTicketsOwnedBy",
      "outputs": [
        {
          "components": [
            {
              "internalType": "address",
              "name": "owner",
              "type": "address"
            },
            {
              "internalType": "enum TickenEvent.Status",
              "name": "status",
              "type": "uint8"
            },
            {
              "internalType": "string",
              "name": "section",
              "type": "string"
            },
            {
              "internalType": "uint256",
              "name": "tokenID",
              "type": "uint256"
            }
          ],
          "internalType": "struct TickenEvent.Ticket[]",
          "name": "",
          "type": "tuple[]"
        }
      ],
      "stateMutability": "view",
      "type": "function"
    }
  ],
  "bytecode": "0x60806040523480156200001157600080fd5b506040518060400160405280600b81526020017f5469636b656e4576656e740000000000000000000000000000000000000000008152506040518060400160405280600381526020017f54434b000000000000000000000000000000000000000000000000000000000081525081600090816200008f919062000448565b508060019081620000a1919062000448565b5050506000600a60006101000a81548160ff021916908315150217905550620000df620000d36200010060201b60201c565b6200010860201b60201c565b6001600a60156101000a81548160ff0219169083151502179055506200052f565b600033905090565b6000600a60019054906101000a900473ffffffffffffffffffffffffffffffffffffffff16905081600a60016101000a81548173ffffffffffffffffffffffffffffffffffffffff021916908373ffffffffffffffffffffffffffffffffffffffff1602179055508173ffffffffffffffffffffffffffffffffffffffff168173ffffffffffffffffffffffffffffffffffffffff167f8be0079c531659141344cd1fd0a4f28419497f9722a3daafe3b4186f6b6457e060405160405180910390a35050565b600081519050919050565b7f4e487b7100000000000000000000000000000000000000000000000000000000600052604160045260246000fd5b7f4e487b7100000000000000000000000000000000000000000000000000000000600052602260045260246000fd5b600060028204905060018216806200025057607f821691505b60208210810362000266576200026562000208565b5b50919050565b60008190508160005260206000209050919050565b60006020601f8301049050919050565b600082821b905092915050565b600060088302620002d07fffffffffffffffffffffffffffffffffffffffffffffffffffffffffffffffff8262000291565b620002dc868362000291565b95508019841693508086168417925050509392505050565b6000819050919050565b6000819050919050565b600062000329620003236200031d84620002f4565b620002fe565b620002f4565b9050919050565b6000819050919050565b620003458362000308565b6200035d620003548262000330565b8484546200029e565b825550505050565b600090565b6200037462000365565b620003818184846200033a565b505050565b5b81811015620003a9576200039d6000826200036a565b60018101905062000387565b5050565b601f821115620003f857620003c2816200026c565b620003cd8462000281565b81016020851015620003dd578190505b620003f5620003ec8562000281565b83018262000386565b50505b505050565b600082821c905092915050565b60006200041d60001984600802620003fd565b1980831691505092915050565b60006200043883836200040a565b9150826002028217905092915050565b6200045382620001ce565b67ffffffffffffffff8111156200046f576200046e620001d9565b5b6200047b825462000237565b62000488828285620003ad565b600060209050601f831160018114620004c05760008415620004ab578287015190505b620004b785826200042a565b86555062000527565b601f198416620004d0866200026c565b60005b82811015620004fa57848901518255600182019150602085019450602081019050620004d3565b868310156200051a578489015162000516601f8916826200040a565b8355505b6001600288020188555050505b505050505050565b6146e5806200053f6000396000f3fe608060405234801561001057600080fd5b50600436106101c45760003560e01c80636352211e116100f9578063c06c314511610097578063dd11247e11610071578063dd11247e1461052c578063e985e9c51461054a578063efafb4d31461057a578063f2fde38b14610584576101c4565b8063c06c3145146104b0578063c87b56dd146104e0578063d58bcf7a14610510576101c4565b80638da5cb5b116100d35780638da5cb5b1461043c57806395d89b411461045a578063a22cb46514610478578063b88d4fde14610494576101c4565b80636352211e146103d257806370a0823114610402578063715018a614610432576101c4565b806323b872dd1161016657806342842e0e1161014057806342842e0e146103355780634f6ccce71461035157806350b44712146103815780635c975abb146103b4576101c4565b806323b872dd146102b95780632f745c59146102d55780633e678b7814610305576101c4565b806306fdde03116101a257806306fdde0314610231578063081812fc1461024f578063095ea7b31461027f57806318160ddd1461029b576101c4565b806301367e6a146101c957806301ffc9a7146101e557806303543fea14610215575b600080fd5b6101e360048036038101906101de9190612d6d565b6105a0565b005b6101ff60048036038101906101fa9190612e18565b610685565b60405161020c9190612e60565b60405180910390f35b61022f600480360381019061022a9190612ee0565b6106ff565b005b610239610930565b6040516102469190612fe4565b60405180910390f35b61026960048036038101906102649190613006565b6109c2565b6040516102769190613042565b60405180910390f35b6102996004803603810190610294919061305d565b610a08565b005b6102a3610b1f565b6040516102b091906130ac565b60405180910390f35b6102d360048036038101906102ce9190612d6d565b610b2c565b005b6102ef60048036038101906102ea919061305d565b610b8c565b6040516102fc91906130ac565b60405180910390f35b61031f600480360381019061031a91906130c7565b610c31565b60405161032c91906132f8565b60405180910390f35b61034f600480360381019061034a9190612d6d565b610e33565b005b61036b60048036038101906103669190613006565b610e53565b60405161037891906130ac565b60405180910390f35b61039b60048036038101906103969190613006565b610ec4565b6040516103ab9493929190613329565b60405180910390f35b6103bc610fa9565b6040516103c99190612e60565b60405180910390f35b6103ec60048036038101906103e79190613006565b610fc0565b6040516103f99190613042565b60405180910390f35b61041c600480360381019061041791906130c7565b611046565b60405161042991906130ac565b60405180910390f35b61043a6110fd565b005b610444611111565b6040516104519190613042565b60405180910390f35b61046261113b565b60405161046f9190612fe4565b60405180910390f35b610492600480360381019061048d91906133a1565b6111cd565b005b6104ae60048036038101906104a99190613511565b6111e3565b005b6104ca60048036038101906104c59190613594565b611245565b6040516104d791906132f8565b60405180910390f35b6104fa60048036038101906104f59190613006565b6114c1565b6040516105079190612fe4565b60405180910390f35b61052a60048036038101906105259190613637565b611529565b005b61053461165a565b60405161054191906130ac565b60405180910390f35b610564600480360381019061055f9190613684565b61166b565b6040516105719190612e60565b60405180910390f35b6105826116ff565b005b61059e600480360381019061059991906130c7565b61172c565b005b6105a86117af565b600a60159054906101000a900460ff16156105e5576105c56117f9565b6105e083838360405180602001604052806000815250611877565b6105f1565b6105f0838383610e33565b5b81600b600083815260200190815260200160002060000160006101000a81548173ffffffffffffffffffffffffffffffffffffffff021916908373ffffffffffffffffffffffffffffffffffffffff160217905550807f17fe3deddce525fa12700a731e77ea94c319000ee656076e9e3f0d21638db76684846040516106789291906136c4565b60405180910390a2505050565b60007f780e9d63000000000000000000000000000000000000000000000000000000007bffffffffffffffffffffffffffffffffffffffffffffffffffffffff1916827bffffffffffffffffffffffffffffffffffffffffffffffffffffffff191614806106f857506106f7826118d3565b5b9050919050565b6107076117af565b61070f6117f9565b610718836119b5565b15610758576040517f08c379a000000000000000000000000000000000000000000000000000000000815260040161074f90613739565b60405180910390fd5b61076284846119f6565b60405180608001604052808573ffffffffffffffffffffffffffffffffffffffff1681526020016000600281111561079d5761079c61312f565b5b815260200183838080601f016020809104026020016040519081016040528093929190818152602001838380828437600081840152601f19601f82011690508083019250505050505050815260200184815250600b600085815260200190815260200160002060008201518160000160006101000a81548173ffffffffffffffffffffffffffffffffffffffff021916908373ffffffffffffffffffffffffffffffffffffffff16021790555060208201518160000160146101000a81548160ff021916908360028111156108755761087461312f565b5b0217905550604082015181600101908161088f9190613965565b50606082015181600201559050506108a7600d611a14565b600c82826040516108b9929190613a67565b9081526020016040518091039020839080600181540180825580915050600190039060005260206000200160009091909190915055827fc478c147d08add952afd005cd422b8e8c18c49d4ebed0652c274217a4c479b7685848460405161092293929190613aad565b60405180910390a250505050565b60606000805461093f90613788565b80601f016020809104026020016040519081016040528092919081815260200182805461096b90613788565b80156109b85780601f1061098d576101008083540402835291602001916109b8565b820191906000526020600020905b81548152906001019060200180831161099b57829003601f168201915b5050505050905090565b60006109cd82611a2a565b6004600083815260200190815260200160002060009054906101000a900473ffffffffffffffffffffffffffffffffffffffff169050919050565b6000610a1382610fc0565b90508073ffffffffffffffffffffffffffffffffffffffff168373ffffffffffffffffffffffffffffffffffffffff1603610a83576040517f08c379a0000000000000000000000000000000000000000000000000000000008152600401610a7a90613b51565b60405180910390fd5b8073ffffffffffffffffffffffffffffffffffffffff16610aa2611a75565b73ffffffffffffffffffffffffffffffffffffffff161480610ad15750610ad081610acb611a75565b61166b565b5b610b10576040517f08c379a0000000000000000000000000000000000000000000000000000000008152600401610b0790613be3565b60405180910390fd5b610b1a8383611a7d565b505050565b6000600880549050905090565b610b3d610b37611a75565b82611b36565b610b7c576040517f08c379a0000000000000000000000000000000000000000000000000000000008152600401610b7390613c75565b60405180910390fd5b610b87838383611bcb565b505050565b6000610b9783611046565b8210610bd8576040517f08c379a0000000000000000000000000000000000000000000000000000000008152600401610bcf90613d07565b60405180910390fd5b600660008473ffffffffffffffffffffffffffffffffffffffff1673ffffffffffffffffffffffffffffffffffffffff168152602001908152602001600020600083815260200190815260200160002054905092915050565b60606000610c3e83611046565b905060008167ffffffffffffffff811115610c5c57610c5b6133e6565b5b604051908082528060200260200182016040528015610c9557816020015b610c82612c75565b815260200190600190039081610c7a5790505b50905060005b82811015610e2857600b6000610cb18784610b8c565b81526020019081526020016000206040518060800160405290816000820160009054906101000a900473ffffffffffffffffffffffffffffffffffffffff1673ffffffffffffffffffffffffffffffffffffffff1673ffffffffffffffffffffffffffffffffffffffff1681526020016000820160149054906101000a900460ff166002811115610d4557610d4461312f565b5b6002811115610d5757610d5661312f565b5b8152602001600182018054610d6b90613788565b80601f0160208091040260200160405190810160405280929190818152602001828054610d9790613788565b8015610de45780601f10610db957610100808354040283529160200191610de4565b820191906000526020600020905b815481529060010190602001808311610dc757829003601f168201915b50505050508152602001600282015481525050828281518110610e0a57610e09613d27565b5b60200260200101819052508080610e2090613d85565b915050610c9b565b508092505050919050565b610e4e838383604051806020016040528060008152506111e3565b505050565b6000610e5d610b1f565b8210610e9e576040517f08c379a0000000000000000000000000000000000000000000000000000000008152600401610e9590613e3f565b60405180910390fd5b60088281548110610eb257610eb1613d27565b5b90600052602060002001549050919050565b600b6020528060005260406000206000915090508060000160009054906101000a900473ffffffffffffffffffffffffffffffffffffffff16908060000160149054906101000a900460ff1690806001018054610f2090613788565b80601f0160208091040260200160405190810160405280929190818152602001828054610f4c90613788565b8015610f995780601f10610f6e57610100808354040283529160200191610f99565b820191906000526020600020905b815481529060010190602001808311610f7c57829003601f168201915b5050505050908060020154905084565b6000600a60009054906101000a900460ff16905090565b600080610fcc83611ec4565b9050600073ffffffffffffffffffffffffffffffffffffffff168173ffffffffffffffffffffffffffffffffffffffff160361103d576040517f08c379a000000000000000000000000000000000000000000000000000000000815260040161103490613eab565b60405180910390fd5b80915050919050565b60008073ffffffffffffffffffffffffffffffffffffffff168273ffffffffffffffffffffffffffffffffffffffff16036110b6576040517f08c379a00000000000000000000000000000000000000000000000000000000081526004016110ad90613f3d565b60405180910390fd5b600360008373ffffffffffffffffffffffffffffffffffffffff1673ffffffffffffffffffffffffffffffffffffffff168152602001908152602001600020549050919050565b6111056117f9565b61110f6000611f01565b565b6000600a60019054906101000a900473ffffffffffffffffffffffffffffffffffffffff16905090565b60606001805461114a90613788565b80601f016020809104026020016040519081016040528092919081815260200182805461117690613788565b80156111c35780601f10611198576101008083540402835291602001916111c3565b820191906000526020600020905b8154815290600101906020018083116111a657829003601f168201915b5050505050905090565b6111df6111d8611a75565b8383611fc7565b5050565b6111f46111ee611a75565b83611b36565b611233576040517f08c379a000000000000000000000000000000000000000000000000000000000815260040161122a90613c75565b60405180910390fd5b61123f84848484611877565b50505050565b60606000600c848460405161125b929190613a67565b90815260200160405180910390208054806020026020016040519081016040528092919081815260200182805480156112b357602002820191906000526020600020905b81548152602001906001019080831161129f575b505050505090506000815167ffffffffffffffff8111156112d7576112d66133e6565b5b60405190808252806020026020018201604052801561131057816020015b6112fd612c75565b8152602001906001900390816112f55790505b50905060005b82518110156114b557600b600084838151811061133657611335613d27565b5b602002602001015181526020019081526020016000206040518060800160405290816000820160009054906101000a900473ffffffffffffffffffffffffffffffffffffffff1673ffffffffffffffffffffffffffffffffffffffff1673ffffffffffffffffffffffffffffffffffffffff1681526020016000820160149054906101000a900460ff1660028111156113d2576113d161312f565b5b60028111156113e4576113e361312f565b5b81526020016001820180546113f890613788565b80601f016020809104026020016040519081016040528092919081815260200182805461142490613788565b80156114715780601f1061144657610100808354040283529160200191611471565b820191906000526020600020905b81548152906001019060200180831161145457829003601f168201915b5050505050815260200160028201548152505082828151811061149757611496613d27565b5b602002602001018190525080806114ad90613d85565b915050611316565b50809250505092915050565b60606114cc82611a2a565b60006114d6612133565b905060008151116114f65760405180602001604052806000815250611521565b806115008461214a565b604051602001611511929190613f8e565b6040516020818303038152906040525b915050919050565b6115316117af565b6115396117f9565b60005b82829050811015611655576000600281111561155b5761155a61312f565b5b600b600085858581811061157257611571613d27565b5b90506020020135815260200190815260200160002060000160149054906101000a900460ff1660028111156115aa576115a961312f565b5b146115ea576040517f08c379a00000000000000000000000000000000000000000000000000000000081526004016115e190614024565b60405180910390fd5b6001600b600085858581811061160357611602613d27565b5b90506020020135815260200190815260200160002060000160146101000a81548160ff0219169083600281111561163d5761163c61312f565b5b0217905550808061164d90613d85565b91505061153c565b505050565b6000611666600d612218565b905090565b6000600560008473ffffffffffffffffffffffffffffffffffffffff1673ffffffffffffffffffffffffffffffffffffffff16815260200190815260200160002060008373ffffffffffffffffffffffffffffffffffffffff1673ffffffffffffffffffffffffffffffffffffffff16815260200190815260200160002060009054906101000a900460ff16905092915050565b6117076117af565b61170f6117f9565b6000600a60156101000a81548160ff021916908315150217905550565b6117346117f9565b600073ffffffffffffffffffffffffffffffffffffffff168173ffffffffffffffffffffffffffffffffffffffff16036117a3576040517f08c379a000000000000000000000000000000000000000000000000000000000815260040161179a906140b6565b60405180910390fd5b6117ac81611f01565b50565b6117b7610fa9565b156117f7576040517f08c379a00000000000000000000000000000000000000000000000000000000081526004016117ee90614122565b60405180910390fd5b565b611801611a75565b73ffffffffffffffffffffffffffffffffffffffff1661181f611111565b73ffffffffffffffffffffffffffffffffffffffff1614611875576040517f08c379a000000000000000000000000000000000000000000000000000000000815260040161186c9061418e565b60405180910390fd5b565b611882848484611bcb565b61188e84848484612226565b6118cd576040517f08c379a00000000000000000000000000000000000000000000000000000000081526004016118c490614220565b60405180910390fd5b50505050565b60007f80ac58cd000000000000000000000000000000000000000000000000000000007bffffffffffffffffffffffffffffffffffffffffffffffffffffffff1916827bffffffffffffffffffffffffffffffffffffffffffffffffffffffff1916148061199e57507f5b5e139f000000000000000000000000000000000000000000000000000000007bffffffffffffffffffffffffffffffffffffffffffffffffffffffff1916827bffffffffffffffffffffffffffffffffffffffffffffffffffffffff1916145b806119ae57506119ad826123ad565b5b9050919050565b60008073ffffffffffffffffffffffffffffffffffffffff166119d783611ec4565b73ffffffffffffffffffffffffffffffffffffffff1614159050919050565b611a10828260405180602001604052806000815250612417565b5050565b6001816000016000828254019250508190555050565b611a33816119b5565b611a72576040517f08c379a0000000000000000000000000000000000000000000000000000000008152600401611a6990613eab565b60405180910390fd5b50565b600033905090565b816004600083815260200190815260200160002060006101000a81548173ffffffffffffffffffffffffffffffffffffffff021916908373ffffffffffffffffffffffffffffffffffffffff160217905550808273ffffffffffffffffffffffffffffffffffffffff16611af083610fc0565b73ffffffffffffffffffffffffffffffffffffffff167f8c5be1e5ebec7d5bd14f71427d1e84f3dd0314c0f7b2291e5b200ac8c7c3b92560405160405180910390a45050565b600080611b4283610fc0565b90508073ffffffffffffffffffffffffffffffffffffffff168473ffffffffffffffffffffffffffffffffffffffff161480611b845750611b83818561166b565b5b80611bc257508373ffffffffffffffffffffffffffffffffffffffff16611baa846109c2565b73ffffffffffffffffffffffffffffffffffffffff16145b91505092915050565b8273ffffffffffffffffffffffffffffffffffffffff16611beb82610fc0565b73ffffffffffffffffffffffffffffffffffffffff1614611c41576040517f08c379a0000000000000000000000000000000000000000000000000000000008152600401611c38906142b2565b60405180910390fd5b600073ffffffffffffffffffffffffffffffffffffffff168273ffffffffffffffffffffffffffffffffffffffff1603611cb0576040517f08c379a0000000000000000000000000000000000000000000000000000000008152600401611ca790614344565b60405180910390fd5b611cbd8383836001612472565b8273ffffffffffffffffffffffffffffffffffffffff16611cdd82610fc0565b73ffffffffffffffffffffffffffffffffffffffff1614611d33576040517f08c379a0000000000000000000000000000000000000000000000000000000008152600401611d2a906142b2565b60405180910390fd5b6004600082815260200190815260200160002060006101000a81549073ffffffffffffffffffffffffffffffffffffffff02191690556001600360008573ffffffffffffffffffffffffffffffffffffffff1673ffffffffffffffffffffffffffffffffffffffff168152602001908152602001600020600082825403925050819055506001600360008473ffffffffffffffffffffffffffffffffffffffff1673ffffffffffffffffffffffffffffffffffffffff16815260200190815260200160002060008282540192505081905550816002600083815260200190815260200160002060006101000a81548173ffffffffffffffffffffffffffffffffffffffff021916908373ffffffffffffffffffffffffffffffffffffffff160217905550808273ffffffffffffffffffffffffffffffffffffffff168473ffffffffffffffffffffffffffffffffffffffff167fddf252ad1be2c89b69c2b068fc378daa952ba7f163c4a11628f55a4df523b3ef60405160405180910390a4611ebf83838360016125d0565b505050565b60006002600083815260200190815260200160002060009054906101000a900473ffffffffffffffffffffffffffffffffffffffff169050919050565b6000600a60019054906101000a900473ffffffffffffffffffffffffffffffffffffffff16905081600a60016101000a81548173ffffffffffffffffffffffffffffffffffffffff021916908373ffffffffffffffffffffffffffffffffffffffff1602179055508173ffffffffffffffffffffffffffffffffffffffff168173ffffffffffffffffffffffffffffffffffffffff167f8be0079c531659141344cd1fd0a4f28419497f9722a3daafe3b4186f6b6457e060405160405180910390a35050565b8173ffffffffffffffffffffffffffffffffffffffff168373ffffffffffffffffffffffffffffffffffffffff1603612035576040517f08c379a000000000000000000000000000000000000000000000000000000000815260040161202c906143b0565b60405180910390fd5b80600560008573ffffffffffffffffffffffffffffffffffffffff1673ffffffffffffffffffffffffffffffffffffffff16815260200190815260200160002060008473ffffffffffffffffffffffffffffffffffffffff1673ffffffffffffffffffffffffffffffffffffffff16815260200190815260200160002060006101000a81548160ff0219169083151502179055508173ffffffffffffffffffffffffffffffffffffffff168373ffffffffffffffffffffffffffffffffffffffff167f17307eab39ab6107e8899845ad3d59bd9653f200f220920489ca2b5937696c31836040516121269190612e60565b60405180910390a3505050565b606060405180602001604052806000815250905090565b606060006001612159846125d6565b01905060008167ffffffffffffffff811115612178576121776133e6565b5b6040519080825280601f01601f1916602001820160405280156121aa5781602001600182028036833780820191505090505b509050600082602001820190505b60011561220d578080600190039150507f3031323334353637383961626364656600000000000000000000000000000000600a86061a8153600a8581612201576122006143d0565b5b049450600085036121b8575b819350505050919050565b600081600001549050919050565b60006122478473ffffffffffffffffffffffffffffffffffffffff16612729565b156123a0578373ffffffffffffffffffffffffffffffffffffffff1663150b7a02612270611a75565b8786866040518563ffffffff1660e01b81526004016122929493929190614454565b6020604051808303816000875af19250505080156122ce57506040513d601f19601f820116820180604052508101906122cb91906144b5565b60015b612350573d80600081146122fe576040519150601f19603f3d011682016040523d82523d6000602084013e612303565b606091505b506000815103612348576040517f08c379a000000000000000000000000000000000000000000000000000000000815260040161233f90614220565b60405180910390fd5b805181602001fd5b63150b7a0260e01b7bffffffffffffffffffffffffffffffffffffffffffffffffffffffff1916817bffffffffffffffffffffffffffffffffffffffffffffffffffffffff1916149150506123a5565b600190505b949350505050565b60007f01ffc9a7000000000000000000000000000000000000000000000000000000007bffffffffffffffffffffffffffffffffffffffffffffffffffffffff1916827bffffffffffffffffffffffffffffffffffffffffffffffffffffffff1916149050919050565b612421838361274c565b61242e6000848484612226565b61246d576040517f08c379a000000000000000000000000000000000000000000000000000000000815260040161246490614220565b60405180910390fd5b505050565b61247e84848484612969565b60018111156124c2576040517f08c379a00000000000000000000000000000000000000000000000000000000081526004016124b990614554565b60405180910390fd5b6000829050600073ffffffffffffffffffffffffffffffffffffffff168573ffffffffffffffffffffffffffffffffffffffff1603612509576125048161296f565b612548565b8373ffffffffffffffffffffffffffffffffffffffff168573ffffffffffffffffffffffffffffffffffffffff16146125475761254685826129b8565b5b5b600073ffffffffffffffffffffffffffffffffffffffff168473ffffffffffffffffffffffffffffffffffffffff160361258a5761258581612b25565b6125c9565b8473ffffffffffffffffffffffffffffffffffffffff168473ffffffffffffffffffffffffffffffffffffffff16146125c8576125c78482612bf6565b5b5b5050505050565b50505050565b600080600090507a184f03e93ff9f4daa797ed6e38ed64bf6a1f0100000000000000008310612634577a184f03e93ff9f4daa797ed6e38ed64bf6a1f010000000000000000838161262a576126296143d0565b5b0492506040810190505b6d04ee2d6d415b85acef81000000008310612671576d04ee2d6d415b85acef81000000008381612667576126666143d0565b5b0492506020810190505b662386f26fc1000083106126a057662386f26fc100008381612696576126956143d0565b5b0492506010810190505b6305f5e10083106126c9576305f5e10083816126bf576126be6143d0565b5b0492506008810190505b61271083106126ee5761271083816126e4576126e36143d0565b5b0492506004810190505b606483106127115760648381612707576127066143d0565b5b0492506002810190505b600a8310612720576001810190505b80915050919050565b6000808273ffffffffffffffffffffffffffffffffffffffff163b119050919050565b600073ffffffffffffffffffffffffffffffffffffffff168273ffffffffffffffffffffffffffffffffffffffff16036127bb576040517f08c379a00000000000000000000000000000000000000000000000000000000081526004016127b2906145c0565b60405180910390fd5b6127c4816119b5565b15612804576040517f08c379a00000000000000000000000000000000000000000000000000000000081526004016127fb9061462c565b60405180910390fd5b612812600083836001612472565b61281b816119b5565b1561285b576040517f08c379a00000000000000000000000000000000000000000000000000000000081526004016128529061462c565b60405180910390fd5b6001600360008473ffffffffffffffffffffffffffffffffffffffff1673ffffffffffffffffffffffffffffffffffffffff16815260200190815260200160002060008282540192505081905550816002600083815260200190815260200160002060006101000a81548173ffffffffffffffffffffffffffffffffffffffff021916908373ffffffffffffffffffffffffffffffffffffffff160217905550808273ffffffffffffffffffffffffffffffffffffffff16600073ffffffffffffffffffffffffffffffffffffffff167fddf252ad1be2c89b69c2b068fc378daa952ba7f163c4a11628f55a4df523b3ef60405160405180910390a46129656000838360016125d0565b5050565b50505050565b6008805490506009600083815260200190815260200160002081905550600881908060018154018082558091505060019003906000526020600020016000909190919091505550565b600060016129c584611046565b6129cf919061464c565b9050600060076000848152602001908152602001600020549050818114612ab4576000600660008673ffffffffffffffffffffffffffffffffffffffff1673ffffffffffffffffffffffffffffffffffffffff168152602001908152602001600020600084815260200190815260200160002054905080600660008773ffffffffffffffffffffffffffffffffffffffff1673ffffffffffffffffffffffffffffffffffffffff168152602001908152602001600020600084815260200190815260200160002081905550816007600083815260200190815260200160002081905550505b6007600084815260200190815260200160002060009055600660008573ffffffffffffffffffffffffffffffffffffffff1673ffffffffffffffffffffffffffffffffffffffff16815260200190815260200160002060008381526020019081526020016000206000905550505050565b60006001600880549050612b39919061464c565b9050600060096000848152602001908152602001600020549050600060088381548110612b6957612b68613d27565b5b906000526020600020015490508060088381548110612b8b57612b8a613d27565b5b906000526020600020018190555081600960008381526020019081526020016000208190555060096000858152602001908152602001600020600090556008805480612bda57612bd9614680565b5b6001900381819060005260206000200160009055905550505050565b6000612c0183611046565b905081600660008573ffffffffffffffffffffffffffffffffffffffff1673ffffffffffffffffffffffffffffffffffffffff168152602001908152602001600020600083815260200190815260200160002081905550806007600084815260200190815260200160002081905550505050565b6040518060800160405280600073ffffffffffffffffffffffffffffffffffffffff16815260200160006002811115612cb157612cb061312f565b5b815260200160608152602001600081525090565b6000604051905090565b600080fd5b600080fd5b600073ffffffffffffffffffffffffffffffffffffffff82169050919050565b6000612d0482612cd9565b9050919050565b612d1481612cf9565b8114612d1f57600080fd5b50565b600081359050612d3181612d0b565b92915050565b6000819050919050565b612d4a81612d37565b8114612d5557600080fd5b50565b600081359050612d6781612d41565b92915050565b600080600060608486031215612d8657612d85612ccf565b5b6000612d9486828701612d22565b9350506020612da586828701612d22565b9250506040612db686828701612d58565b9150509250925092565b60007fffffffff0000000000000000000000000000000000000000000000000000000082169050919050565b612df581612dc0565b8114612e0057600080fd5b50565b600081359050612e1281612dec565b92915050565b600060208284031215612e2e57612e2d612ccf565b5b6000612e3c84828501612e03565b91505092915050565b60008115159050919050565b612e5a81612e45565b82525050565b6000602082019050612e756000830184612e51565b92915050565b600080fd5b600080fd5b600080fd5b60008083601f840112612ea057612e9f612e7b565b5b8235905067ffffffffffffffff811115612ebd57612ebc612e80565b5b602083019150836001820283011115612ed957612ed8612e85565b5b9250929050565b60008060008060608587031215612efa57612ef9612ccf565b5b6000612f0887828801612d22565b9450506020612f1987828801612d58565b935050604085013567ffffffffffffffff811115612f3a57612f39612cd4565b5b612f4687828801612e8a565b925092505092959194509250565b600081519050919050565b600082825260208201905092915050565b60005b83811015612f8e578082015181840152602081019050612f73565b60008484015250505050565b6000601f19601f8301169050919050565b6000612fb682612f54565b612fc08185612f5f565b9350612fd0818560208601612f70565b612fd981612f9a565b840191505092915050565b60006020820190508181036000830152612ffe8184612fab565b905092915050565b60006020828403121561301c5761301b612ccf565b5b600061302a84828501612d58565b91505092915050565b61303c81612cf9565b82525050565b60006020820190506130576000830184613033565b92915050565b6000806040838503121561307457613073612ccf565b5b600061308285828601612d22565b925050602061309385828601612d58565b9150509250929050565b6130a681612d37565b82525050565b60006020820190506130c1600083018461309d565b92915050565b6000602082840312156130dd576130dc612ccf565b5b60006130eb84828501612d22565b91505092915050565b600081519050919050565b600082825260208201905092915050565b6000819050602082019050919050565b61312981612cf9565b82525050565b7f4e487b7100000000000000000000000000000000000000000000000000000000600052602160045260246000fd5b6003811061316f5761316e61312f565b5b50565b60008190506131808261315e565b919050565b600061319082613172565b9050919050565b6131a081613185565b82525050565b600082825260208201905092915050565b60006131c282612f54565b6131cc81856131a6565b93506131dc818560208601612f70565b6131e581612f9a565b840191505092915050565b6131f981612d37565b82525050565b60006080830160008301516132176000860182613120565b50602083015161322a6020860182613197565b506040830151848203604086015261324282826131b7565b915050606083015161325760608601826131f0565b508091505092915050565b600061326e83836131ff565b905092915050565b6000602082019050919050565b600061328e826130f4565b61329881856130ff565b9350836020820285016132aa85613110565b8060005b858110156132e657848403895281516132c78582613262565b94506132d283613276565b925060208a019950506001810190506132ae565b50829750879550505050505092915050565b600060208201905081810360008301526133128184613283565b905092915050565b61332381613185565b82525050565b600060808201905061333e6000830187613033565b61334b602083018661331a565b818103604083015261335d8185612fab565b905061336c606083018461309d565b95945050505050565b61337e81612e45565b811461338957600080fd5b50565b60008135905061339b81613375565b92915050565b600080604083850312156133b8576133b7612ccf565b5b60006133c685828601612d22565b92505060206133d78582860161338c565b9150509250929050565b600080fd5b7f4e487b7100000000000000000000000000000000000000000000000000000000600052604160045260246000fd5b61341e82612f9a565b810181811067ffffffffffffffff8211171561343d5761343c6133e6565b5b80604052505050565b6000613450612cc5565b905061345c8282613415565b919050565b600067ffffffffffffffff82111561347c5761347b6133e6565b5b61348582612f9a565b9050602081019050919050565b82818337600083830152505050565b60006134b46134af84613461565b613446565b9050828152602081018484840111156134d0576134cf6133e1565b5b6134db848285613492565b509392505050565b600082601f8301126134f8576134f7612e7b565b5b81356135088482602086016134a1565b91505092915050565b6000806000806080858703121561352b5761352a612ccf565b5b600061353987828801612d22565b945050602061354a87828801612d22565b935050604061355b87828801612d58565b925050606085013567ffffffffffffffff81111561357c5761357b612cd4565b5b613588878288016134e3565b91505092959194509250565b600080602083850312156135ab576135aa612ccf565b5b600083013567ffffffffffffffff8111156135c9576135c8612cd4565b5b6135d585828601612e8a565b92509250509250929050565b60008083601f8401126135f7576135f6612e7b565b5b8235905067ffffffffffffffff81111561361457613613612e80565b5b6020830191508360208202830111156136305761362f612e85565b5b9250929050565b6000806020838503121561364e5761364d612ccf565b5b600083013567ffffffffffffffff81111561366c5761366b612cd4565b5b613678858286016135e1565b92509250509250929050565b6000806040838503121561369b5761369a612ccf565b5b60006136a985828601612d22565b92505060206136ba85828601612d22565b9150509250929050565b60006040820190506136d96000830185613033565b6136e66020830184613033565b9392505050565b7f546f6b656e20494420616c726561647920657869737473000000000000000000600082015250565b6000613723601783612f5f565b915061372e826136ed565b602082019050919050565b6000602082019050818103600083015261375281613716565b9050919050565b7f4e487b7100000000000000000000000000000000000000000000000000000000600052602260045260246000fd5b600060028204905060018216806137a057607f821691505b6020821081036137b3576137b2613759565b5b50919050565b60008190508160005260206000209050919050565b60006020601f8301049050919050565b600082821b905092915050565b60006008830261381b7fffffffffffffffffffffffffffffffffffffffffffffffffffffffffffffffff826137de565b61382586836137de565b95508019841693508086168417925050509392505050565b6000819050919050565b600061386261385d61385884612d37565b61383d565b612d37565b9050919050565b6000819050919050565b61387c83613847565b61389061388882613869565b8484546137eb565b825550505050565b600090565b6138a5613898565b6138b0818484613873565b505050565b5b818110156138d4576138c960008261389d565b6001810190506138b6565b5050565b601f821115613919576138ea816137b9565b6138f3846137ce565b81016020851015613902578190505b61391661390e856137ce565b8301826138b5565b50505b505050565b600082821c905092915050565b600061393c6000198460080261391e565b1980831691505092915050565b6000613955838361392b565b9150826002028217905092915050565b61396e82612f54565b67ffffffffffffffff811115613987576139866133e6565b5b6139918254613788565b61399c8282856138d8565b600060209050601f8311600181146139cf57600084156139bd578287015190505b6139c78582613949565b865550613a2f565b601f1984166139dd866137b9565b60005b82811015613a05578489015182556001820191506020850194506020810190506139e0565b86831015613a225784890151613a1e601f89168261392b565b8355505b6001600288020188555050505b505050505050565b600081905092915050565b6000613a4e8385613a37565b9350613a5b838584613492565b82840190509392505050565b6000613a74828486613a42565b91508190509392505050565b6000613a8c8385612f5f565b9350613a99838584613492565b613aa283612f9a565b840190509392505050565b6000604082019050613ac26000830186613033565b8181036020830152613ad5818486613a80565b9050949350505050565b7f4552433732313a20617070726f76616c20746f2063757272656e74206f776e6560008201527f7200000000000000000000000000000000000000000000000000000000000000602082015250565b6000613b3b602183612f5f565b9150613b4682613adf565b604082019050919050565b60006020820190508181036000830152613b6a81613b2e565b9050919050565b7f4552433732313a20617070726f76652063616c6c6572206973206e6f7420746f60008201527f6b656e206f776e6572206f7220617070726f76656420666f7220616c6c000000602082015250565b6000613bcd603d83612f5f565b9150613bd882613b71565b604082019050919050565b60006020820190508181036000830152613bfc81613bc0565b9050919050565b7f4552433732313a2063616c6c6572206973206e6f7420746f6b656e206f776e6560008201527f72206f7220617070726f76656400000000000000000000000000000000000000602082015250565b6000613c5f602d83612f5f565b9150613c6a82613c03565b604082019050919050565b60006020820190508181036000830152613c8e81613c52565b9050919050565b7f455243373231456e756d657261626c653a206f776e657220696e646578206f7560008201527f74206f6620626f756e6473000000000000000000000000000000000000000000602082015250565b6000613cf1602b83612f5f565b9150613cfc82613c95565b604082019050919050565b60006020820190508181036000830152613d2081613ce4565b9050919050565b7f4e487b7100000000000000000000000000000000000000000000000000000000600052603260045260246000fd5b7f4e487b7100000000000000000000000000000000000000000000000000000000600052601160045260246000fd5b6000613d9082612d37565b91507fffffffffffffffffffffffffffffffffffffffffffffffffffffffffffffffff8203613dc257613dc1613d56565b5b600182019050919050565b7f455243373231456e756d657261626c653a20676c6f62616c20696e646578206f60008201527f7574206f6620626f756e64730000000000000000000000000000000000000000602082015250565b6000613e29602c83612f5f565b9150613e3482613dcd565b604082019050919050565b60006020820190508181036000830152613e5881613e1c565b9050919050565b7f4552433732313a20696e76616c696420746f6b656e2049440000000000000000600082015250565b6000613e95601883612f5f565b9150613ea082613e5f565b602082019050919050565b60006020820190508181036000830152613ec481613e88565b9050919050565b7f4552433732313a2061646472657373207a65726f206973206e6f74206120766160008201527f6c6964206f776e65720000000000000000000000000000000000000000000000602082015250565b6000613f27602983612f5f565b9150613f3282613ecb565b604082019050919050565b60006020820190508181036000830152613f5681613f1a565b9050919050565b6000613f6882612f54565b613f728185613a37565b9350613f82818560208601612f70565b80840191505092915050565b6000613f9a8285613f5d565b9150613fa68284613f5d565b91508190509392505050565b7f5469636b656e3a205469636b657420616c7265616479207363616e6e6564206f60008201527f7220657870697265640000000000000000000000000000000000000000000000602082015250565b600061400e602983612f5f565b915061401982613fb2565b604082019050919050565b6000602082019050818103600083015261403d81614001565b9050919050565b7f4f776e61626c653a206e6577206f776e657220697320746865207a65726f206160008201527f6464726573730000000000000000000000000000000000000000000000000000602082015250565b60006140a0602683612f5f565b91506140ab82614044565b604082019050919050565b600060208201905081810360008301526140cf81614093565b9050919050565b7f5061757361626c653a2070617573656400000000000000000000000000000000600082015250565b600061410c601083612f5f565b9150614117826140d6565b602082019050919050565b6000602082019050818103600083015261413b816140ff565b9050919050565b7f4f776e61626c653a2063616c6c6572206973206e6f7420746865206f776e6572600082015250565b6000614178602083612f5f565b915061418382614142565b602082019050919050565b600060208201905081810360008301526141a78161416b565b9050919050565b7f4552433732313a207472616e7366657220746f206e6f6e20455243373231526560008201527f63656976657220696d706c656d656e7465720000000000000000000000000000602082015250565b600061420a603283612f5f565b9150614215826141ae565b604082019050919050565b60006020820190508181036000830152614239816141fd565b9050919050565b7f4552433732313a207472616e736665722066726f6d20696e636f72726563742060008201527f6f776e6572000000000000000000000000000000000000000000000000000000602082015250565b600061429c602583612f5f565b91506142a782614240565b604082019050919050565b600060208201905081810360008301526142cb8161428f565b9050919050565b7f4552433732313a207472616e7366657220746f20746865207a65726f2061646460008201527f7265737300000000000000000000000000000000000000000000000000000000602082015250565b600061432e602483612f5f565b9150614339826142d2565b604082019050919050565b6000602082019050818103600083015261435d81614321565b9050919050565b7f4552433732313a20617070726f766520746f2063616c6c657200000000000000600082015250565b600061439a601983612f5f565b91506143a582614364565b602082019050919050565b600060208201905081810360008301526143c98161438d565b9050919050565b7f4e487b7100000000000000000000000000000000000000000000000000000000600052601260045260246000fd5b600081519050919050565b600082825260208201905092915050565b6000614426826143ff565b614430818561440a565b9350614440818560208601612f70565b61444981612f9a565b840191505092915050565b60006080820190506144696000830187613033565b6144766020830186613033565b614483604083018561309d565b8181036060830152614495818461441b565b905095945050505050565b6000815190506144af81612dec565b92915050565b6000602082840312156144cb576144ca612ccf565b5b60006144d9848285016144a0565b91505092915050565b7f455243373231456e756d657261626c653a20636f6e736563757469766520747260008201527f616e7366657273206e6f7420737570706f727465640000000000000000000000602082015250565b600061453e603583612f5f565b9150614549826144e2565b604082019050919050565b6000602082019050818103600083015261456d81614531565b9050919050565b7f4552433732313a206d696e7420746f20746865207a65726f2061646472657373600082015250565b60006145aa602083612f5f565b91506145b582614574565b602082019050919050565b600060208201905081810360008301526145d98161459d565b9050919050565b7f4552433732313a20746f6b656e20616c7265616479206d696e74656400000000600082015250565b6000614616601c83612f5f565b9150614621826145e0565b602082019050919050565b6000602082019050818103600083015261464581614609565b9050919050565b600061465782612d37565b915061466283612d37565b925082820390508181111561467a57614679613d56565b5b92915050565b7f4e487b7100000000000000000000000000000000000000000000000000000000600052603160045260246000fdfea2646970667358221220c160a8295df294577176a0b4d29c137149c49094a903767ea74ba6aa141e94c364736f6c63430008130033",
  "immutableReferences": {},
  "source": "// SPDX-License-Identifier: MIT\npragma solidity >=0.4.22 <0.9.0;\n\nimport \"../node_modules/@openzeppelin/contracts/utils/Counters.sol\";\nimport \"../node_modules/@openzeppelin/contracts/access/Ownable.sol\";\nimport \"../node_modules/@openzeppelin/contracts/security/Pausable.sol\";\nimport \"../node_modules/@openzeppelin/contracts/token/ERC721/extensions/ERC721Enumerable.sol\";\n\ncontract TickenEvent is ERC721Enumerable, Pausable, Ownable {\n    /************************* Ticket ************************/\n    struct Ticket {\n        address owner;\n        Status status;\n        string section;\n        uint256 tokenID;\n    }\n\n    enum Status {\n        // Issues represents the state of the  ticket right\n        // after it is \"issued\". Tickets in this state can\n        // be scanned\n        ISSUED,\n\n        // TicketStatusScanned represents the state of the\n        // ticket after it is \"scanned\". Important that this\n        // is not  done in the same moment the scanning occurs,\n        // this state is done on batch\n        SCANNED,\n\n        // TicketStatusExpired represents the state of the\n        // ticket after the event is finished and the ticket\n        // never were scanned\n        EXPIRED\n    }\n    /*********************************************************/\n\n    /******************** Event State ************************/\n    // this variable indicates if the event is currently with\n    // tickets on sale (\"anchored\") or not. While the event is\n    // anchored, all tickets can only be traded by Ticken\n    // (contract owner) or using the sell/buy ticket methods.\n    // When the event becomes not anchored, all tickets are\n    // free to be traded as NFT's\n    bool private _anchored;\n    /*********************************************************/\n\n    /********************* Chain Events **********************/\n    event TicketMinted(address owner, string section, uint256 indexed tokenID);\n    event TicketTransferred(address from, address to, uint256 indexed tokenID);\n    /*********************************************************/\n\n    /**************** Mappings & Counters ********************/\n    using Counters for Counters.Counter;\n\n    // Mapping from token ID to tickets\n    mapping(uint256 => Ticket) public tickets;\n\n    // Mapping from section to tokenIDs\n    mapping(string => uint256[]) private _ticketsBySection;\n\n    // Count the number of tickets issued\n    Counters.Counter private _ticketsCounter;\n    /*********************************************************/\n\n\n    constructor() ERC721(\"TickenEvent\", \"TCK\") {\n        _anchored = true;\n    }\n\n    /*********************************************************\n     * mintTicket mint a ticket for the event in the section\n     * passed by parameters. It fails if there is a ticket\n     * already minted with this tokenID\n     *\n     * @params:\n     * - address to      -> address of the ticket owner\n     * - uint256 tokenID -> ticket ID in the blockchain\n     * - string  section -> section of thw event where the ticket\n     *                      is valid\n     *\n     * return: none\n     *********************************************************/\n    function raiseAnchors() public whenNotPaused onlyOwner {\n        _anchored = false;\n    }\n\n    /*********************************************************\n     * totalTickets returns the amount of tickets emitted\n     * for the event up to the moment of the call\n     *\n     * params: none\n     * return: uint\n     *********************************************************/\n    function totalTickets() public view returns (uint count) {\n        return _ticketsCounter.current();\n    }\n\n    /*********************************************************\n     * mintTicket mint a ticket for the event in the section\n     * passed by parameters. It fails if there is a ticket\n     * already minted with this tokenID\n     *\n     * @params:\n     * - address to      -> address of the ticket owner\n     * - uint256 tokenID -> ticket ID in the blockchain\n     * - string  section -> section of thw event where the ticket\n     *                      is valid\n     *\n     * return: none\n     *********************************************************/\n    function mintTicket(address to, uint256 tokenID, string calldata section) public whenNotPaused onlyOwner {\n        require(!_exists(tokenID), \"Token ID already exists\");\n\n        // links the token ID (ticket ID)\n        // to owner address\n        _safeMint(to, tokenID);\n\n        tickets[tokenID] = Ticket({\n        owner: to,\n        section: section,\n        tokenID: tokenID,\n        status: Status.ISSUED\n        });\n\n        _ticketsCounter.increment();\n        _ticketsBySection[section].push(tokenID);\n\n        emit TicketMinted(to, section, tokenID);\n    }\n\n    /*********************************************************\n     * mintTicket mint a ticket for the event in the section\n     * passed by parameters. It fails if there is a ticket\n     * already minted with this tokenID\n     *\n     * @params:\n     * - address to      -> address of the ticket owner\n     * - uint256 tokenID -> ticket ID in the blockchain\n     * - string  section -> section of thw event where the ticket\n     *                      is valid\n     *\n     * return: none\n     *********************************************************/\n    function transferTicket(address from, address to, uint256 tokenID) public whenNotPaused {\n        // we are going to restric this method only\n        // for the contract owners (Ticken) while the\n        // tickets are avaiable to buy. After that, this\n        // method becomes free to every user to tranfer\n        // their tickets as NFTs\n        if (_anchored) {\n            _checkOwner();\n            _safeTransfer(from, to, tokenID, \"\");\n        } else {\n            safeTransferFrom(from, to, tokenID);\n        }\n\n        tickets[tokenID].owner = to;\n\n        emit TicketTransferred(from, to, tokenID);\n    }\n\n    /*********************************************************\n     * scanBatch mark as scaneed all tickets passed by parameter.\n     * It failes if one of the tokens is not is \"issued\" state.\n     *\n     * @params:\n     * - uint256[] tokenIDs -> list of all tokens to be scanned\n     *\n     * return: none\n     *********************************************************/\n    function scanBatch(uint256[] calldata tokenIDs) public whenNotPaused onlyOwner {        \n        for (uint256 i = 0; i < tokenIDs.length; i++) {\n            require(\n                tickets[tokenIDs[i]].status == Status.ISSUED, \n                \"Ticken: Ticket already scanned or expired\"\n            );\n            \n            tickets[tokenIDs[i]].status = Status.SCANNED;\n        }\n    }\n    \n\n    /*********************************************************\n     * getSectionTickets returns all tickets of the section\n     * passed by parameters. It will return empty list if there\n     * is no tickets for this section\n     *\n     * @params:\n     * - string  section -> section of the event\n     *\n     * return: TicketDTO array\n     *********************************************************/\n    function getSectionTickets(string calldata section) public view returns (Ticket[] memory) {\n        uint256[] memory sectionTokenIDs = _ticketsBySection[section];\n        Ticket[] memory _tickets = new Ticket[](sectionTokenIDs.length);\n\n        for (uint256 i = 0; i < sectionTokenIDs.length; i++) {\n            _tickets[i] = tickets[sectionTokenIDs[i]];\n        }\n\n        return _tickets;\n    }\n\n    /*********************************************************\n     * getTicketsOwnedBy returns all tickets owned by the owner\n     * passed by parameters. It will return empty list if there\n     * is no tickets for this owner\n     *\n     * @params:\n     * - address owner -> ticket owner\n     *\n     * return: TicketDTO array\n     *********************************************************/\n    function getTicketsOwnedBy(address owner) public view returns (Ticket[] memory) {\n        uint256 ownerTokenCount = balanceOf(owner);\n        Ticket[] memory _tickets = new Ticket[](ownerTokenCount);\n\n        for (uint256 i; i < ownerTokenCount; i++) {\n            _tickets[i] = tickets[tokenOfOwnerByIndex(owner, i)];\n        }\n\n        return _tickets;\n    }\n}\n",
  "sourcePath": "/home/runner/work/ticken-contracts/ticken-contracts/main/ethereum/contracts/TickenEvent.sol",
  "compiler": {
    "name": "solc",
    "version": "0.8.19+commit.7dd6d404.Emscripten.clang"
  },
  "schemaVersion": "3.4.13",
  "updatedAt": "2023-04-15T06:26:57.505Z",
  "devdoc": {
    "events": {
      "Approval(address,address,uint256)": {
        "details": "Emitted when `owner` enables `approved` to manage the `tokenId` token."
      },
      "ApprovalForAll(address,address,bool)": {
        "details": "Emitted when `owner` enables or disables (`approved`) `operator` to manage all of its assets."
      },
      "Paused(address)": {
        "details": "Emitted when the pause is triggered by `account`."
      },
      "Transfer(address,address,uint256)": {
        "details": "Emitted when `tokenId` token is transferred from `from` to `to`."
      },
      "Unpaused(address)": {
        "details": "Emitted when the pause is lifted by `account`."
      }
    },
    "kind": "dev",
    "methods": {
      "approve(address,uint256)": {
        "details": "See {IERC721-approve}."
      },
      "balanceOf(address)": {
        "details": "See {IERC721-balanceOf}."
      },
      "getApproved(uint256)": {
        "details": "See {IERC721-getApproved}."
      },
      "isApprovedForAll(address,address)": {
        "details": "See {IERC721-isApprovedForAll}."
      },
      "name()": {
        "details": "See {IERC721Metadata-name}."
      },
      "owner()": {
        "details": "Returns the address of the current owner."
      },
      "ownerOf(uint256)": {
        "details": "See {IERC721-ownerOf}."
      },
      "paused()": {
        "details": "Returns true if the contract is paused, and false otherwise."
      },
      "renounceOwnership()": {
        "details": "Leaves the contract without owner. It will not be possible to call `onlyOwner` functions anymore. Can only be called by the current owner. NOTE: Renouncing ownership will leave the contract without an owner, thereby removing any functionality that is only available to the owner."
      },
      "safeTransferFrom(address,address,uint256)": {
        "details": "See {IERC721-safeTransferFrom}."
      },
      "safeTransferFrom(address,address,uint256,bytes)": {
        "details": "See {IERC721-safeTransferFrom}."
      },
      "setApprovalForAll(address,bool)": {
        "details": "See {IERC721-setApprovalForAll}."
      },
      "supportsInterface(bytes4)": {
        "details": "See {IERC165-supportsInterface}."
      },
      "symbol()": {
        "details": "See {IERC721Metadata-symbol}."
      },
      "tokenByIndex(uint256)": {
        "details": "See {IERC721Enumerable-tokenByIndex}."
      },
      "tokenOfOwnerByIndex(address,uint256)": {
        "details": "See {IERC721Enumerable-tokenOfOwnerByIndex}."
      },
      "tokenURI(uint256)": {
        "details": "See {IERC721Metadata-tokenURI}."
      },
      "totalSupply()": {
        "details": "See {IERC721Enumerable-totalSupply}."
      },
      "transferFrom(address,address,uint256)": {
        "details": "See {IERC721-transferFrom}."
      },
      "transferOwnership(address)": {
        "details": "Transfers ownership of the contract to a new account (`newOwner`). Can only be called by the current owner."
      }
    },
    "version": 1
  },
  "userdoc": {
    "kind": "user",
    "methods": {},
    "version": 1
  }
}