{
  "contractName": "TickenEvent",
  "abi": [
    {
      "inputs": [],
      "stateMutability": "nonpayable",
      "type": "constructor"
    },
    {
      "anonymous": false,
      "inputs": [
        {
          "indexed": true,
          "internalType": "address",
          "name": "owner",
          "type": "address"
        },
        {
          "indexed": true,
          "internalType": "address",
          "name": "approved",
          "type": "address"
        },
        {
          "indexed": true,
          "internalType": "uint256",
          "name": "tokenId",
          "type": "uint256"
        }
      ],
      "name": "Approval",
      "type": "event"
    },
    {
      "anonymous": false,
      "inputs": [
        {
          "indexed": true,
          "internalType": "address",
          "name": "owner",
          "type": "address"
        },
        {
          "indexed": true,
          "internalType": "address",
          "name": "operator",
          "type": "address"
        },
        {
          "indexed": false,
          "internalType": "bool",
          "name": "approved",
          "type": "bool"
        }
      ],
      "name": "ApprovalForAll",
      "type": "event"
    },
    {
      "anonymous": false,
      "inputs": [
        {
          "indexed": true,
          "internalType": "address",
          "name": "previousOwner",
          "type": "address"
        },
        {
          "indexed": true,
          "internalType": "address",
          "name": "newOwner",
          "type": "address"
        }
      ],
      "name": "OwnershipTransferred",
      "type": "event"
    },
    {
      "anonymous": false,
      "inputs": [
        {
          "indexed": false,
          "internalType": "address",
          "name": "account",
          "type": "address"
        }
      ],
      "name": "Paused",
      "type": "event"
    },
    {
      "anonymous": false,
      "inputs": [
        {
          "indexed": false,
          "internalType": "address",
          "name": "owner",
          "type": "address"
        },
        {
          "indexed": false,
          "internalType": "string",
          "name": "section",
          "type": "string"
        },
        {
          "indexed": true,
          "internalType": "uint256",
          "name": "tokenID",
          "type": "uint256"
        }
      ],
      "name": "TicketMinted",
      "type": "event"
    },
    {
      "anonymous": false,
      "inputs": [
        {
          "indexed": false,
          "internalType": "address",
          "name": "from",
          "type": "address"
        },
        {
          "indexed": false,
          "internalType": "address",
          "name": "to",
          "type": "address"
        },
        {
          "indexed": true,
          "internalType": "uint256",
          "name": "tokenID",
          "type": "uint256"
        }
      ],
      "name": "TicketTransferred",
      "type": "event"
    },
    {
      "anonymous": false,
      "inputs": [
        {
          "indexed": true,
          "internalType": "address",
          "name": "from",
          "type": "address"
        },
        {
          "indexed": true,
          "internalType": "address",
          "name": "to",
          "type": "address"
        },
        {
          "indexed": true,
          "internalType": "uint256",
          "name": "tokenId",
          "type": "uint256"
        }
      ],
      "name": "Transfer",
      "type": "event"
    },
    {
      "anonymous": false,
      "inputs": [
        {
          "indexed": false,
          "internalType": "address",
          "name": "account",
          "type": "address"
        }
      ],
      "name": "Unpaused",
      "type": "event"
    },
    {
      "inputs": [
        {
          "internalType": "address",
          "name": "to",
          "type": "address"
        },
        {
          "internalType": "uint256",
          "name": "tokenId",
          "type": "uint256"
        }
      ],
      "name": "approve",
      "outputs": [],
      "stateMutability": "nonpayable",
      "type": "function"
    },
    {
      "inputs": [
        {
          "internalType": "address",
          "name": "owner",
          "type": "address"
        }
      ],
      "name": "balanceOf",
      "outputs": [
        {
          "internalType": "uint256",
          "name": "",
          "type": "uint256"
        }
      ],
      "stateMutability": "view",
      "type": "function"
    },
    {
      "inputs": [
        {
          "internalType": "uint256",
          "name": "tokenId",
          "type": "uint256"
        }
      ],
      "name": "getApproved",
      "outputs": [
        {
          "internalType": "address",
          "name": "",
          "type": "address"
        }
      ],
      "stateMutability": "view",
      "type": "function"
    },
    {
      "inputs": [
        {
          "internalType": "address",
          "name": "owner",
          "type": "address"
        },
        {
          "internalType": "address",
          "name": "operator",
          "type": "address"
        }
      ],
      "name": "isApprovedForAll",
      "outputs": [
        {
          "internalType": "bool",
          "name": "",
          "type": "bool"
        }
      ],
      "stateMutability": "view",
      "type": "function"
    },
    {
      "inputs": [],
      "name": "name",
      "outputs": [
        {
          "internalType": "string",
          "name": "",
          "type": "string"
        }
      ],
      "stateMutability": "view",
      "type": "function"
    },
    {
      "inputs": [],
      "name": "owner",
      "outputs": [
        {
          "internalType": "address",
          "name": "",
          "type": "address"
        }
      ],
      "stateMutability": "view",
      "type": "function"
    },
    {
      "inputs": [
        {
          "internalType": "uint256",
          "name": "tokenId",
          "type": "uint256"
        }
      ],
      "name": "ownerOf",
      "outputs": [
        {
          "internalType": "address",
          "name": "",
          "type": "address"
        }
      ],
      "stateMutability": "view",
      "type": "function"
    },
    {
      "inputs": [],
      "name": "paused",
      "outputs": [
        {
          "internalType": "bool",
          "name": "",
          "type": "bool"
        }
      ],
      "stateMutability": "view",
      "type": "function"
    },
    {
      "inputs": [],
      "name": "renounceOwnership",
      "outputs": [],
      "stateMutability": "nonpayable",
      "type": "function"
    },
    {
      "inputs": [
        {
          "internalType": "address",
          "name": "from",
          "type": "address"
        },
        {
          "internalType": "address",
          "name": "to",
          "type": "address"
        },
        {
          "internalType": "uint256",
          "name": "tokenId",
          "type": "uint256"
        }
      ],
      "name": "safeTransferFrom",
      "outputs": [],
      "stateMutability": "nonpayable",
      "type": "function"
    },
    {
      "inputs": [
        {
          "internalType": "address",
          "name": "from",
          "type": "address"
        },
        {
          "internalType": "address",
          "name": "to",
          "type": "address"
        },
        {
          "internalType": "uint256",
          "name": "tokenId",
          "type": "uint256"
        },
        {
          "internalType": "bytes",
          "name": "data",
          "type": "bytes"
        }
      ],
      "name": "safeTransferFrom",
      "outputs": [],
      "stateMutability": "nonpayable",
      "type": "function"
    },
    {
      "inputs": [
        {
          "internalType": "address",
          "name": "operator",
          "type": "address"
        },
        {
          "internalType": "bool",
          "name": "approved",
          "type": "bool"
        }
      ],
      "name": "setApprovalForAll",
      "outputs": [],
      "stateMutability": "nonpayable",
      "type": "function"
    },
    {
      "inputs": [
        {
          "internalType": "bytes4",
          "name": "interfaceId",
          "type": "bytes4"
        }
      ],
      "name": "supportsInterface",
      "outputs": [
        {
          "internalType": "bool",
          "name": "",
          "type": "bool"
        }
      ],
      "stateMutability": "view",
      "type": "function"
    },
    {
      "inputs": [],
      "name": "symbol",
      "outputs": [
        {
          "internalType": "string",
          "name": "",
          "type": "string"
        }
      ],
      "stateMutability": "view",
      "type": "function"
    },
    {
      "inputs": [
        {
          "internalType": "uint256",
          "name": "",
          "type": "uint256"
        }
      ],
      "name": "tickets",
      "outputs": [
        {
          "internalType": "address",
          "name": "owner",
          "type": "address"
        },
        {
          "internalType": "enum TickenEvent.Status",
          "name": "status",
          "type": "uint8"
        },
        {
          "internalType": "string",
          "name": "section",
          "type": "string"
        },
        {
          "internalType": "uint256",
          "name": "tokenID",
          "type": "uint256"
        }
      ],
      "stateMutability": "view",
      "type": "function"
    },
    {
      "inputs": [
        {
          "internalType": "uint256",
          "name": "index",
          "type": "uint256"
        }
      ],
      "name": "tokenByIndex",
      "outputs": [
        {
          "internalType": "uint256",
          "name": "",
          "type": "uint256"
        }
      ],
      "stateMutability": "view",
      "type": "function"
    },
    {
      "inputs": [
        {
          "internalType": "address",
          "name": "owner",
          "type": "address"
        },
        {
          "internalType": "uint256",
          "name": "index",
          "type": "uint256"
        }
      ],
      "name": "tokenOfOwnerByIndex",
      "outputs": [
        {
          "internalType": "uint256",
          "name": "",
          "type": "uint256"
        }
      ],
      "stateMutability": "view",
      "type": "function"
    },
    {
      "inputs": [
        {
          "internalType": "uint256",
          "name": "tokenId",
          "type": "uint256"
        }
      ],
      "name": "tokenURI",
      "outputs": [
        {
          "internalType": "string",
          "name": "",
          "type": "string"
        }
      ],
      "stateMutability": "view",
      "type": "function"
    },
    {
      "inputs": [],
      "name": "totalSupply",
      "outputs": [
        {
          "internalType": "uint256",
          "name": "",
          "type": "uint256"
        }
      ],
      "stateMutability": "view",
      "type": "function"
    },
    {
      "inputs": [
        {
          "internalType": "address",
          "name": "from",
          "type": "address"
        },
        {
          "internalType": "address",
          "name": "to",
          "type": "address"
        },
        {
          "internalType": "uint256",
          "name": "tokenId",
          "type": "uint256"
        }
      ],
      "name": "transferFrom",
      "outputs": [],
      "stateMutability": "nonpayable",
      "type": "function"
    },
    {
      "inputs": [
        {
          "internalType": "address",
          "name": "newOwner",
          "type": "address"
        }
      ],
      "name": "transferOwnership",
      "outputs": [],
      "stateMutability": "nonpayable",
      "type": "function"
    },
    {
      "inputs": [],
      "name": "raiseAnchors",
      "outputs": [],
      "stateMutability": "nonpayable",
      "type": "function"
    },
    {
      "inputs": [],
      "name": "totalTickets",
      "outputs": [
        {
          "internalType": "uint256",
          "name": "count",
          "type": "uint256"
        }
      ],
      "stateMutability": "view",
      "type": "function"
    },
    {
      "inputs": [
        {
          "internalType": "address",
          "name": "to",
          "type": "address"
        },
        {
          "internalType": "uint256",
          "name": "tokenID",
          "type": "uint256"
        },
        {
          "internalType": "string",
          "name": "section",
          "type": "string"
        }
      ],
      "name": "mintTicket",
      "outputs": [],
      "stateMutability": "nonpayable",
      "type": "function"
    },
    {
      "inputs": [
        {
          "internalType": "address",
          "name": "from",
          "type": "address"
        },
        {
          "internalType": "address",
          "name": "to",
          "type": "address"
        },
        {
          "internalType": "uint256",
          "name": "tokenID",
          "type": "uint256"
        }
      ],
      "name": "transferTicket",
      "outputs": [],
      "stateMutability": "nonpayable",
      "type": "function"
    },
    {
      "inputs": [
        {
          "internalType": "uint256[]",
          "name": "tokenIDs",
          "type": "uint256[]"
        }
      ],
      "name": "scanBatch",
      "outputs": [],
      "stateMutability": "nonpayable",
      "type": "function"
    },
    {
      "inputs": [
        {
          "internalType": "string",
          "name": "section",
          "type": "string"
        }
      ],
      "name": "getSectionTickets",
      "outputs": [
        {
          "components": [
            {
              "internalType": "address",
              "name": "owner",
              "type": "address"
            },
            {
              "internalType": "enum TickenEvent.Status",
              "name": "status",
              "type": "uint8"
            },
            {
              "internalType": "string",
              "name": "section",
              "type": "string"
            },
            {
              "internalType": "uint256",
              "name": "tokenID",
              "type": "uint256"
            }
          ],
          "internalType": "struct TickenEvent.Ticket[]",
          "name": "",
          "type": "tuple[]"
        }
      ],
      "stateMutability": "view",
      "type": "function"
    },
    {
      "inputs": [
        {
          "internalType": "address",
          "name": "owner",
          "type": "address"
        }
      ],
      "name": "getTicketsOwnedBy",
      "outputs": [
        {
          "components": [
            {
              "internalType": "address",
              "name": "owner",
              "type": "address"
            },
            {
              "internalType": "enum TickenEvent.Status",
              "name": "status",
              "type": "uint8"
            },
            {
              "internalType": "string",
              "name": "section",
              "type": "string"
            },
            {
              "internalType": "uint256",
              "name": "tokenID",
              "type": "uint256"
            }
          ],
          "internalType": "struct TickenEvent.Ticket[]",
          "name": "",
          "type": "tuple[]"
        }
      ],
      "stateMutability": "view",
      "type": "function"
    }
  ],
  "bytecode": "0x60806040523480156200001157600080fd5b506040518060400160405280600b81526020017f5469636b656e4576656e740000000000000000000000000000000000000000008152506040518060400160405280600381526020017f54434b000000000000000000000000000000000000000000000000000000000081525081600090816200008f919062000448565b508060019081620000a1919062000448565b5050506000600a60006101000a81548160ff021916908315150217905550620000df620000d36200010060201b60201c565b6200010860201b60201c565b6001600a60156101000a81548160ff0219169083151502179055506200052f565b600033905090565b6000600a60019054906101000a900473ffffffffffffffffffffffffffffffffffffffff16905081600a60016101000a81548173ffffffffffffffffffffffffffffffffffffffff021916908373ffffffffffffffffffffffffffffffffffffffff1602179055508173ffffffffffffffffffffffffffffffffffffffff168173ffffffffffffffffffffffffffffffffffffffff167f8be0079c531659141344cd1fd0a4f28419497f9722a3daafe3b4186f6b6457e060405160405180910390a35050565b600081519050919050565b7f4e487b7100000000000000000000000000000000000000000000000000000000600052604160045260246000fd5b7f4e487b7100000000000000000000000000000000000000000000000000000000600052602260045260246000fd5b600060028204905060018216806200025057607f821691505b60208210810362000266576200026562000208565b5b50919050565b60008190508160005260206000209050919050565b60006020601f8301049050919050565b600082821b905092915050565b600060088302620002d07fffffffffffffffffffffffffffffffffffffffffffffffffffffffffffffffff8262000291565b620002dc868362000291565b95508019841693508086168417925050509392505050565b6000819050919050565b6000819050919050565b600062000329620003236200031d84620002f4565b620002fe565b620002f4565b9050919050565b6000819050919050565b620003458362000308565b6200035d620003548262000330565b8484546200029e565b825550505050565b600090565b6200037462000365565b620003818184846200033a565b505050565b5b81811015620003a9576200039d6000826200036a565b60018101905062000387565b5050565b601f821115620003f857620003c2816200026c565b620003cd8462000281565b81016020851015620003dd578190505b620003f5620003ec8562000281565b83018262000386565b50505b505050565b600082821c905092915050565b60006200041d60001984600802620003fd565b1980831691505092915050565b60006200043883836200040a565b9150826002028217905092915050565b6200045382620001ce565b67ffffffffffffffff8111156200046f576200046e620001d9565b5b6200047b825462000237565b62000488828285620003ad565b600060209050601f831160018114620004c05760008415620004ab578287015190505b620004b785826200042a565b86555062000527565b601f198416620004d0866200026c565b60005b82811015620004fa57848901518255600182019150602085019450602081019050620004d3565b868310156200051a578489015162000516601f8916826200040a565b8355505b6001600288020188555050505b505050505050565b614720806200053f6000396000f3fe608060405234801561001057600080fd5b50600436106101c45760003560e01c80636352211e116100f9578063c06c314511610097578063dd11247e11610071578063dd11247e1461052c578063e985e9c51461054a578063efafb4d31461057a578063f2fde38b14610584576101c4565b8063c06c3145146104b0578063c87b56dd146104e0578063d58bcf7a14610510576101c4565b80638da5cb5b116100d35780638da5cb5b1461043c57806395d89b411461045a578063a22cb46514610478578063b88d4fde14610494576101c4565b80636352211e146103d257806370a0823114610402578063715018a614610432576101c4565b806323b872dd1161016657806342842e0e1161014057806342842e0e146103355780634f6ccce71461035157806350b44712146103815780635c975abb146103b4576101c4565b806323b872dd146102b95780632f745c59146102d55780633e678b7814610305576101c4565b806306fdde03116101a257806306fdde0314610231578063081812fc1461024f578063095ea7b31461027f57806318160ddd1461029b576101c4565b806301367e6a146101c957806301ffc9a7146101e557806303543fea14610215575b600080fd5b6101e360048036038101906101de9190612d24565b6105a0565b005b6101ff60048036038101906101fa9190612dcf565b610685565b60405161020c9190612e17565b60405180910390f35b61022f600480360381019061022a9190612f78565b6106ff565b005b6102396108e7565b6040516102469190613066565b60405180910390f35b61026960048036038101906102649190613088565b610979565b60405161027691906130c4565b60405180910390f35b610299600480360381019061029491906130df565b6109bf565b005b6102a3610ad6565b6040516102b0919061312e565b60405180910390f35b6102d360048036038101906102ce9190612d24565b610ae3565b005b6102ef60048036038101906102ea91906130df565b610b43565b6040516102fc919061312e565b60405180910390f35b61031f600480360381019061031a9190613149565b610be8565b60405161032c919061337a565b60405180910390f35b61034f600480360381019061034a9190612d24565b610dea565b005b61036b60048036038101906103669190613088565b610e0a565b604051610378919061312e565b60405180910390f35b61039b60048036038101906103969190613088565b610e7b565b6040516103ab94939291906133ab565b60405180910390f35b6103bc610f60565b6040516103c99190612e17565b60405180910390f35b6103ec60048036038101906103e79190613088565b610f77565b6040516103f991906130c4565b60405180910390f35b61041c60048036038101906104179190613149565b610ffd565b604051610429919061312e565b60405180910390f35b61043a6110b4565b005b6104446110c8565b60405161045191906130c4565b60405180910390f35b6104626110f2565b60405161046f9190613066565b60405180910390f35b610492600480360381019061048d9190613423565b611184565b005b6104ae60048036038101906104a99190613504565b61119a565b005b6104ca60048036038101906104c591906135e7565b6111fc565b6040516104d7919061337a565b60405180910390f35b6104fa60048036038101906104f59190613088565b611478565b6040516105079190613066565b60405180910390f35b61052a6004803603810190610525919061368a565b6114e0565b005b610534611611565b604051610541919061312e565b60405180910390f35b610564600480360381019061055f91906136d7565b611622565b6040516105719190612e17565b60405180910390f35b6105826116b6565b005b61059e60048036038101906105999190613149565b6116e3565b005b6105a8611766565b600a60159054906101000a900460ff16156105e5576105c56117b0565b6105e08383836040518060200160405280600081525061182e565b6105f1565b6105f0838383610dea565b5b81600b600083815260200190815260200160002060000160006101000a81548173ffffffffffffffffffffffffffffffffffffffff021916908373ffffffffffffffffffffffffffffffffffffffff160217905550807f17fe3deddce525fa12700a731e77ea94c319000ee656076e9e3f0d21638db7668484604051610678929190613717565b60405180910390a2505050565b60007f780e9d63000000000000000000000000000000000000000000000000000000007bffffffffffffffffffffffffffffffffffffffffffffffffffffffff1916827bffffffffffffffffffffffffffffffffffffffffffffffffffffffff191614806106f857506106f78261188a565b5b9050919050565b610707611766565b61070f6117b0565b6107188261196c565b15610758576040517f08c379a000000000000000000000000000000000000000000000000000000000815260040161074f9061378c565b60405180910390fd5b61076283836119ad565b60405180608001604052808473ffffffffffffffffffffffffffffffffffffffff1681526020016000600181111561079d5761079c6131b1565b5b815260200182815260200183815250600b600084815260200190815260200160002060008201518160000160006101000a81548173ffffffffffffffffffffffffffffffffffffffff021916908373ffffffffffffffffffffffffffffffffffffffff16021790555060208201518160000160146101000a81548160ff02191690836001811115610831576108306131b1565b5b0217905550604082015181600101908161084b91906139b8565b5060608201518160020155905050610863600d6119cb565b600c816040516108739190613ac6565b9081526020016040518091039020829080600181540180825580915050600190039060005260206000200160009091909190915055817fc478c147d08add952afd005cd422b8e8c18c49d4ebed0652c274217a4c479b7684836040516108da929190613add565b60405180910390a2505050565b6060600080546108f6906137db565b80601f0160208091040260200160405190810160405280929190818152602001828054610922906137db565b801561096f5780601f106109445761010080835404028352916020019161096f565b820191906000526020600020905b81548152906001019060200180831161095257829003601f168201915b5050505050905090565b6000610984826119e1565b6004600083815260200190815260200160002060009054906101000a900473ffffffffffffffffffffffffffffffffffffffff169050919050565b60006109ca82610f77565b90508073ffffffffffffffffffffffffffffffffffffffff168373ffffffffffffffffffffffffffffffffffffffff1603610a3a576040517f08c379a0000000000000000000000000000000000000000000000000000000008152600401610a3190613b7f565b60405180910390fd5b8073ffffffffffffffffffffffffffffffffffffffff16610a59611a2c565b73ffffffffffffffffffffffffffffffffffffffff161480610a885750610a8781610a82611a2c565b611622565b5b610ac7576040517f08c379a0000000000000000000000000000000000000000000000000000000008152600401610abe90613c11565b60405180910390fd5b610ad18383611a34565b505050565b6000600880549050905090565b610af4610aee611a2c565b82611aed565b610b33576040517f08c379a0000000000000000000000000000000000000000000000000000000008152600401610b2a90613ca3565b60405180910390fd5b610b3e838383611b82565b505050565b6000610b4e83610ffd565b8210610b8f576040517f08c379a0000000000000000000000000000000000000000000000000000000008152600401610b8690613d35565b60405180910390fd5b600660008473ffffffffffffffffffffffffffffffffffffffff1673ffffffffffffffffffffffffffffffffffffffff168152602001908152602001600020600083815260200190815260200160002054905092915050565b60606000610bf583610ffd565b905060008167ffffffffffffffff811115610c1357610c12612e4d565b5b604051908082528060200260200182016040528015610c4c57816020015b610c39612c2c565b815260200190600190039081610c315790505b50905060005b82811015610ddf57600b6000610c688784610b43565b81526020019081526020016000206040518060800160405290816000820160009054906101000a900473ffffffffffffffffffffffffffffffffffffffff1673ffffffffffffffffffffffffffffffffffffffff1673ffffffffffffffffffffffffffffffffffffffff1681526020016000820160149054906101000a900460ff166001811115610cfc57610cfb6131b1565b5b6001811115610d0e57610d0d6131b1565b5b8152602001600182018054610d22906137db565b80601f0160208091040260200160405190810160405280929190818152602001828054610d4e906137db565b8015610d9b5780601f10610d7057610100808354040283529160200191610d9b565b820191906000526020600020905b815481529060010190602001808311610d7e57829003601f168201915b50505050508152602001600282015481525050828281518110610dc157610dc0613d55565b5b60200260200101819052508080610dd790613db3565b915050610c52565b508092505050919050565b610e058383836040518060200160405280600081525061119a565b505050565b6000610e14610ad6565b8210610e55576040517f08c379a0000000000000000000000000000000000000000000000000000000008152600401610e4c90613e6d565b60405180910390fd5b60088281548110610e6957610e68613d55565b5b90600052602060002001549050919050565b600b6020528060005260406000206000915090508060000160009054906101000a900473ffffffffffffffffffffffffffffffffffffffff16908060000160149054906101000a900460ff1690806001018054610ed7906137db565b80601f0160208091040260200160405190810160405280929190818152602001828054610f03906137db565b8015610f505780601f10610f2557610100808354040283529160200191610f50565b820191906000526020600020905b815481529060010190602001808311610f3357829003601f168201915b5050505050908060020154905084565b6000600a60009054906101000a900460ff16905090565b600080610f8383611e7b565b9050600073ffffffffffffffffffffffffffffffffffffffff168173ffffffffffffffffffffffffffffffffffffffff1603610ff4576040517f08c379a0000000000000000000000000000000000000000000000000000000008152600401610feb90613ed9565b60405180910390fd5b80915050919050565b60008073ffffffffffffffffffffffffffffffffffffffff168273ffffffffffffffffffffffffffffffffffffffff160361106d576040517f08c379a000000000000000000000000000000000000000000000000000000000815260040161106490613f6b565b60405180910390fd5b600360008373ffffffffffffffffffffffffffffffffffffffff1673ffffffffffffffffffffffffffffffffffffffff168152602001908152602001600020549050919050565b6110bc6117b0565b6110c66000611eb8565b565b6000600a60019054906101000a900473ffffffffffffffffffffffffffffffffffffffff16905090565b606060018054611101906137db565b80601f016020809104026020016040519081016040528092919081815260200182805461112d906137db565b801561117a5780601f1061114f5761010080835404028352916020019161117a565b820191906000526020600020905b81548152906001019060200180831161115d57829003601f168201915b5050505050905090565b61119661118f611a2c565b8383611f7e565b5050565b6111ab6111a5611a2c565b83611aed565b6111ea576040517f08c379a00000000000000000000000000000000000000000000000000000000081526004016111e190613ca3565b60405180910390fd5b6111f68484848461182e565b50505050565b60606000600c8484604051611212929190613fb0565b908152602001604051809103902080548060200260200160405190810160405280929190818152602001828054801561126a57602002820191906000526020600020905b815481526020019060010190808311611256575b505050505090506000815167ffffffffffffffff81111561128e5761128d612e4d565b5b6040519080825280602002602001820160405280156112c757816020015b6112b4612c2c565b8152602001906001900390816112ac5790505b50905060005b825181101561146c57600b60008483815181106112ed576112ec613d55565b5b602002602001015181526020019081526020016000206040518060800160405290816000820160009054906101000a900473ffffffffffffffffffffffffffffffffffffffff1673ffffffffffffffffffffffffffffffffffffffff1673ffffffffffffffffffffffffffffffffffffffff1681526020016000820160149054906101000a900460ff166001811115611389576113886131b1565b5b600181111561139b5761139a6131b1565b5b81526020016001820180546113af906137db565b80601f01602080910402602001604051908101604052809291908181526020018280546113db906137db565b80156114285780601f106113fd57610100808354040283529160200191611428565b820191906000526020600020905b81548152906001019060200180831161140b57829003601f168201915b5050505050815260200160028201548152505082828151811061144e5761144d613d55565b5b6020026020010181905250808061146490613db3565b9150506112cd565b50809250505092915050565b6060611483826119e1565b600061148d6120ea565b905060008151116114ad57604051806020016040528060008152506114d8565b806114b784612101565b6040516020016114c8929190613fc9565b6040516020818303038152906040525b915050919050565b6114e8611766565b6114f06117b0565b60005b8282905081101561160c5760006001811115611512576115116131b1565b5b600b600085858581811061152957611528613d55565b5b90506020020135815260200190815260200160002060000160149054906101000a900460ff166001811115611561576115606131b1565b5b146115a1576040517f08c379a00000000000000000000000000000000000000000000000000000000081526004016115989061405f565b60405180910390fd5b6001600b60008585858181106115ba576115b9613d55565b5b90506020020135815260200190815260200160002060000160146101000a81548160ff021916908360018111156115f4576115f36131b1565b5b0217905550808061160490613db3565b9150506114f3565b505050565b600061161d600d6121cf565b905090565b6000600560008473ffffffffffffffffffffffffffffffffffffffff1673ffffffffffffffffffffffffffffffffffffffff16815260200190815260200160002060008373ffffffffffffffffffffffffffffffffffffffff1673ffffffffffffffffffffffffffffffffffffffff16815260200190815260200160002060009054906101000a900460ff16905092915050565b6116be611766565b6116c66117b0565b6000600a60156101000a81548160ff021916908315150217905550565b6116eb6117b0565b600073ffffffffffffffffffffffffffffffffffffffff168173ffffffffffffffffffffffffffffffffffffffff160361175a576040517f08c379a0000000000000000000000000000000000000000000000000000000008152600401611751906140f1565b60405180910390fd5b61176381611eb8565b50565b61176e610f60565b156117ae576040517f08c379a00000000000000000000000000000000000000000000000000000000081526004016117a59061415d565b60405180910390fd5b565b6117b8611a2c565b73ffffffffffffffffffffffffffffffffffffffff166117d66110c8565b73ffffffffffffffffffffffffffffffffffffffff161461182c576040517f08c379a0000000000000000000000000000000000000000000000000000000008152600401611823906141c9565b60405180910390fd5b565b611839848484611b82565b611845848484846121dd565b611884576040517f08c379a000000000000000000000000000000000000000000000000000000000815260040161187b9061425b565b60405180910390fd5b50505050565b60007f80ac58cd000000000000000000000000000000000000000000000000000000007bffffffffffffffffffffffffffffffffffffffffffffffffffffffff1916827bffffffffffffffffffffffffffffffffffffffffffffffffffffffff1916148061195557507f5b5e139f000000000000000000000000000000000000000000000000000000007bffffffffffffffffffffffffffffffffffffffffffffffffffffffff1916827bffffffffffffffffffffffffffffffffffffffffffffffffffffffff1916145b80611965575061196482612364565b5b9050919050565b60008073ffffffffffffffffffffffffffffffffffffffff1661198e83611e7b565b73ffffffffffffffffffffffffffffffffffffffff1614159050919050565b6119c78282604051806020016040528060008152506123ce565b5050565b6001816000016000828254019250508190555050565b6119ea8161196c565b611a29576040517f08c379a0000000000000000000000000000000000000000000000000000000008152600401611a2090613ed9565b60405180910390fd5b50565b600033905090565b816004600083815260200190815260200160002060006101000a81548173ffffffffffffffffffffffffffffffffffffffff021916908373ffffffffffffffffffffffffffffffffffffffff160217905550808273ffffffffffffffffffffffffffffffffffffffff16611aa783610f77565b73ffffffffffffffffffffffffffffffffffffffff167f8c5be1e5ebec7d5bd14f71427d1e84f3dd0314c0f7b2291e5b200ac8c7c3b92560405160405180910390a45050565b600080611af983610f77565b90508073ffffffffffffffffffffffffffffffffffffffff168473ffffffffffffffffffffffffffffffffffffffff161480611b3b5750611b3a8185611622565b5b80611b7957508373ffffffffffffffffffffffffffffffffffffffff16611b6184610979565b73ffffffffffffffffffffffffffffffffffffffff16145b91505092915050565b8273ffffffffffffffffffffffffffffffffffffffff16611ba282610f77565b73ffffffffffffffffffffffffffffffffffffffff1614611bf8576040517f08c379a0000000000000000000000000000000000000000000000000000000008152600401611bef906142ed565b60405180910390fd5b600073ffffffffffffffffffffffffffffffffffffffff168273ffffffffffffffffffffffffffffffffffffffff1603611c67576040517f08c379a0000000000000000000000000000000000000000000000000000000008152600401611c5e9061437f565b60405180910390fd5b611c748383836001612429565b8273ffffffffffffffffffffffffffffffffffffffff16611c9482610f77565b73ffffffffffffffffffffffffffffffffffffffff1614611cea576040517f08c379a0000000000000000000000000000000000000000000000000000000008152600401611ce1906142ed565b60405180910390fd5b6004600082815260200190815260200160002060006101000a81549073ffffffffffffffffffffffffffffffffffffffff02191690556001600360008573ffffffffffffffffffffffffffffffffffffffff1673ffffffffffffffffffffffffffffffffffffffff168152602001908152602001600020600082825403925050819055506001600360008473ffffffffffffffffffffffffffffffffffffffff1673ffffffffffffffffffffffffffffffffffffffff16815260200190815260200160002060008282540192505081905550816002600083815260200190815260200160002060006101000a81548173ffffffffffffffffffffffffffffffffffffffff021916908373ffffffffffffffffffffffffffffffffffffffff160217905550808273ffffffffffffffffffffffffffffffffffffffff168473ffffffffffffffffffffffffffffffffffffffff167fddf252ad1be2c89b69c2b068fc378daa952ba7f163c4a11628f55a4df523b3ef60405160405180910390a4611e768383836001612587565b505050565b60006002600083815260200190815260200160002060009054906101000a900473ffffffffffffffffffffffffffffffffffffffff169050919050565b6000600a60019054906101000a900473ffffffffffffffffffffffffffffffffffffffff16905081600a60016101000a81548173ffffffffffffffffffffffffffffffffffffffff021916908373ffffffffffffffffffffffffffffffffffffffff1602179055508173ffffffffffffffffffffffffffffffffffffffff168173ffffffffffffffffffffffffffffffffffffffff167f8be0079c531659141344cd1fd0a4f28419497f9722a3daafe3b4186f6b6457e060405160405180910390a35050565b8173ffffffffffffffffffffffffffffffffffffffff168373ffffffffffffffffffffffffffffffffffffffff1603611fec576040517f08c379a0000000000000000000000000000000000000000000000000000000008152600401611fe3906143eb565b60405180910390fd5b80600560008573ffffffffffffffffffffffffffffffffffffffff1673ffffffffffffffffffffffffffffffffffffffff16815260200190815260200160002060008473ffffffffffffffffffffffffffffffffffffffff1673ffffffffffffffffffffffffffffffffffffffff16815260200190815260200160002060006101000a81548160ff0219169083151502179055508173ffffffffffffffffffffffffffffffffffffffff168373ffffffffffffffffffffffffffffffffffffffff167f17307eab39ab6107e8899845ad3d59bd9653f200f220920489ca2b5937696c31836040516120dd9190612e17565b60405180910390a3505050565b606060405180602001604052806000815250905090565b6060600060016121108461258d565b01905060008167ffffffffffffffff81111561212f5761212e612e4d565b5b6040519080825280601f01601f1916602001820160405280156121615781602001600182028036833780820191505090505b509050600082602001820190505b6001156121c4578080600190039150507f3031323334353637383961626364656600000000000000000000000000000000600a86061a8153600a85816121b8576121b761440b565b5b0494506000850361216f575b819350505050919050565b600081600001549050919050565b60006121fe8473ffffffffffffffffffffffffffffffffffffffff166126e0565b15612357578373ffffffffffffffffffffffffffffffffffffffff1663150b7a02612227611a2c565b8786866040518563ffffffff1660e01b8152600401612249949392919061448f565b6020604051808303816000875af192505050801561228557506040513d601f19601f8201168201806040525081019061228291906144f0565b60015b612307573d80600081146122b5576040519150601f19603f3d011682016040523d82523d6000602084013e6122ba565b606091505b5060008151036122ff576040517f08c379a00000000000000000000000000000000000000000000000000000000081526004016122f69061425b565b60405180910390fd5b805181602001fd5b63150b7a0260e01b7bffffffffffffffffffffffffffffffffffffffffffffffffffffffff1916817bffffffffffffffffffffffffffffffffffffffffffffffffffffffff19161491505061235c565b600190505b949350505050565b60007f01ffc9a7000000000000000000000000000000000000000000000000000000007bffffffffffffffffffffffffffffffffffffffffffffffffffffffff1916827bffffffffffffffffffffffffffffffffffffffffffffffffffffffff1916149050919050565b6123d88383612703565b6123e560008484846121dd565b612424576040517f08c379a000000000000000000000000000000000000000000000000000000000815260040161241b9061425b565b60405180910390fd5b505050565b61243584848484612920565b6001811115612479576040517f08c379a00000000000000000000000000000000000000000000000000000000081526004016124709061458f565b60405180910390fd5b6000829050600073ffffffffffffffffffffffffffffffffffffffff168573ffffffffffffffffffffffffffffffffffffffff16036124c0576124bb81612926565b6124ff565b8373ffffffffffffffffffffffffffffffffffffffff168573ffffffffffffffffffffffffffffffffffffffff16146124fe576124fd858261296f565b5b5b600073ffffffffffffffffffffffffffffffffffffffff168473ffffffffffffffffffffffffffffffffffffffff16036125415761253c81612adc565b612580565b8473ffffffffffffffffffffffffffffffffffffffff168473ffffffffffffffffffffffffffffffffffffffff161461257f5761257e8482612bad565b5b5b5050505050565b50505050565b600080600090507a184f03e93ff9f4daa797ed6e38ed64bf6a1f01000000000000000083106125eb577a184f03e93ff9f4daa797ed6e38ed64bf6a1f01000000000000000083816125e1576125e061440b565b5b0492506040810190505b6d04ee2d6d415b85acef81000000008310612628576d04ee2d6d415b85acef8100000000838161261e5761261d61440b565b5b0492506020810190505b662386f26fc10000831061265757662386f26fc10000838161264d5761264c61440b565b5b0492506010810190505b6305f5e1008310612680576305f5e10083816126765761267561440b565b5b0492506008810190505b61271083106126a557612710838161269b5761269a61440b565b5b0492506004810190505b606483106126c857606483816126be576126bd61440b565b5b0492506002810190505b600a83106126d7576001810190505b80915050919050565b6000808273ffffffffffffffffffffffffffffffffffffffff163b119050919050565b600073ffffffffffffffffffffffffffffffffffffffff168273ffffffffffffffffffffffffffffffffffffffff1603612772576040517f08c379a0000000000000000000000000000000000000000000000000000000008152600401612769906145fb565b60405180910390fd5b61277b8161196c565b156127bb576040517f08c379a00000000000000000000000000000000000000000000000000000000081526004016127b290614667565b60405180910390fd5b6127c9600083836001612429565b6127d28161196c565b15612812576040517f08c379a000000000000000000000000000000000000000000000000000000000815260040161280990614667565b60405180910390fd5b6001600360008473ffffffffffffffffffffffffffffffffffffffff1673ffffffffffffffffffffffffffffffffffffffff16815260200190815260200160002060008282540192505081905550816002600083815260200190815260200160002060006101000a81548173ffffffffffffffffffffffffffffffffffffffff021916908373ffffffffffffffffffffffffffffffffffffffff160217905550808273ffffffffffffffffffffffffffffffffffffffff16600073ffffffffffffffffffffffffffffffffffffffff167fddf252ad1be2c89b69c2b068fc378daa952ba7f163c4a11628f55a4df523b3ef60405160405180910390a461291c600083836001612587565b5050565b50505050565b6008805490506009600083815260200190815260200160002081905550600881908060018154018082558091505060019003906000526020600020016000909190919091505550565b6000600161297c84610ffd565b6129869190614687565b9050600060076000848152602001908152602001600020549050818114612a6b576000600660008673ffffffffffffffffffffffffffffffffffffffff1673ffffffffffffffffffffffffffffffffffffffff168152602001908152602001600020600084815260200190815260200160002054905080600660008773ffffffffffffffffffffffffffffffffffffffff1673ffffffffffffffffffffffffffffffffffffffff168152602001908152602001600020600084815260200190815260200160002081905550816007600083815260200190815260200160002081905550505b6007600084815260200190815260200160002060009055600660008573ffffffffffffffffffffffffffffffffffffffff1673ffffffffffffffffffffffffffffffffffffffff16815260200190815260200160002060008381526020019081526020016000206000905550505050565b60006001600880549050612af09190614687565b9050600060096000848152602001908152602001600020549050600060088381548110612b2057612b1f613d55565b5b906000526020600020015490508060088381548110612b4257612b41613d55565b5b906000526020600020018190555081600960008381526020019081526020016000208190555060096000858152602001908152602001600020600090556008805480612b9157612b906146bb565b5b6001900381819060005260206000200160009055905550505050565b6000612bb883610ffd565b905081600660008573ffffffffffffffffffffffffffffffffffffffff1673ffffffffffffffffffffffffffffffffffffffff168152602001908152602001600020600083815260200190815260200160002081905550806007600084815260200190815260200160002081905550505050565b6040518060800160405280600073ffffffffffffffffffffffffffffffffffffffff16815260200160006001811115612c6857612c676131b1565b5b815260200160608152602001600081525090565b6000604051905090565b600080fd5b600080fd5b600073ffffffffffffffffffffffffffffffffffffffff82169050919050565b6000612cbb82612c90565b9050919050565b612ccb81612cb0565b8114612cd657600080fd5b50565b600081359050612ce881612cc2565b92915050565b6000819050919050565b612d0181612cee565b8114612d0c57600080fd5b50565b600081359050612d1e81612cf8565b92915050565b600080600060608486031215612d3d57612d3c612c86565b5b6000612d4b86828701612cd9565b9350506020612d5c86828701612cd9565b9250506040612d6d86828701612d0f565b9150509250925092565b60007fffffffff0000000000000000000000000000000000000000000000000000000082169050919050565b612dac81612d77565b8114612db757600080fd5b50565b600081359050612dc981612da3565b92915050565b600060208284031215612de557612de4612c86565b5b6000612df384828501612dba565b91505092915050565b60008115159050919050565b612e1181612dfc565b82525050565b6000602082019050612e2c6000830184612e08565b92915050565b600080fd5b600080fd5b6000601f19601f8301169050919050565b7f4e487b7100000000000000000000000000000000000000000000000000000000600052604160045260246000fd5b612e8582612e3c565b810181811067ffffffffffffffff82111715612ea457612ea3612e4d565b5b80604052505050565b6000612eb7612c7c565b9050612ec38282612e7c565b919050565b600067ffffffffffffffff821115612ee357612ee2612e4d565b5b612eec82612e3c565b9050602081019050919050565b82818337600083830152505050565b6000612f1b612f1684612ec8565b612ead565b905082815260208101848484011115612f3757612f36612e37565b5b612f42848285612ef9565b509392505050565b600082601f830112612f5f57612f5e612e32565b5b8135612f6f848260208601612f08565b91505092915050565b600080600060608486031215612f9157612f90612c86565b5b6000612f9f86828701612cd9565b9350506020612fb086828701612d0f565b925050604084013567ffffffffffffffff811115612fd157612fd0612c8b565b5b612fdd86828701612f4a565b9150509250925092565b600081519050919050565b600082825260208201905092915050565b60005b83811015613021578082015181840152602081019050613006565b60008484015250505050565b600061303882612fe7565b6130428185612ff2565b9350613052818560208601613003565b61305b81612e3c565b840191505092915050565b60006020820190508181036000830152613080818461302d565b905092915050565b60006020828403121561309e5761309d612c86565b5b60006130ac84828501612d0f565b91505092915050565b6130be81612cb0565b82525050565b60006020820190506130d960008301846130b5565b92915050565b600080604083850312156130f6576130f5612c86565b5b600061310485828601612cd9565b925050602061311585828601612d0f565b9150509250929050565b61312881612cee565b82525050565b6000602082019050613143600083018461311f565b92915050565b60006020828403121561315f5761315e612c86565b5b600061316d84828501612cd9565b91505092915050565b600081519050919050565b600082825260208201905092915050565b6000819050602082019050919050565b6131ab81612cb0565b82525050565b7f4e487b7100000000000000000000000000000000000000000000000000000000600052602160045260246000fd5b600281106131f1576131f06131b1565b5b50565b6000819050613202826131e0565b919050565b6000613212826131f4565b9050919050565b61322281613207565b82525050565b600082825260208201905092915050565b600061324482612fe7565b61324e8185613228565b935061325e818560208601613003565b61326781612e3c565b840191505092915050565b61327b81612cee565b82525050565b600060808301600083015161329960008601826131a2565b5060208301516132ac6020860182613219565b50604083015184820360408601526132c48282613239565b91505060608301516132d96060860182613272565b508091505092915050565b60006132f08383613281565b905092915050565b6000602082019050919050565b600061331082613176565b61331a8185613181565b93508360208202850161332c85613192565b8060005b85811015613368578484038952815161334985826132e4565b9450613354836132f8565b925060208a01995050600181019050613330565b50829750879550505050505092915050565b600060208201905081810360008301526133948184613305565b905092915050565b6133a581613207565b82525050565b60006080820190506133c060008301876130b5565b6133cd602083018661339c565b81810360408301526133df818561302d565b90506133ee606083018461311f565b95945050505050565b61340081612dfc565b811461340b57600080fd5b50565b60008135905061341d816133f7565b92915050565b6000806040838503121561343a57613439612c86565b5b600061344885828601612cd9565b92505060206134598582860161340e565b9150509250929050565b600067ffffffffffffffff82111561347e5761347d612e4d565b5b61348782612e3c565b9050602081019050919050565b60006134a76134a284613463565b612ead565b9050828152602081018484840111156134c3576134c2612e37565b5b6134ce848285612ef9565b509392505050565b600082601f8301126134eb576134ea612e32565b5b81356134fb848260208601613494565b91505092915050565b6000806000806080858703121561351e5761351d612c86565b5b600061352c87828801612cd9565b945050602061353d87828801612cd9565b935050604061354e87828801612d0f565b925050606085013567ffffffffffffffff81111561356f5761356e612c8b565b5b61357b878288016134d6565b91505092959194509250565b600080fd5b600080fd5b60008083601f8401126135a7576135a6612e32565b5b8235905067ffffffffffffffff8111156135c4576135c3613587565b5b6020830191508360018202830111156135e0576135df61358c565b5b9250929050565b600080602083850312156135fe576135fd612c86565b5b600083013567ffffffffffffffff81111561361c5761361b612c8b565b5b61362885828601613591565b92509250509250929050565b60008083601f84011261364a57613649612e32565b5b8235905067ffffffffffffffff81111561366757613666613587565b5b6020830191508360208202830111156136835761368261358c565b5b9250929050565b600080602083850312156136a1576136a0612c86565b5b600083013567ffffffffffffffff8111156136bf576136be612c8b565b5b6136cb85828601613634565b92509250509250929050565b600080604083850312156136ee576136ed612c86565b5b60006136fc85828601612cd9565b925050602061370d85828601612cd9565b9150509250929050565b600060408201905061372c60008301856130b5565b61373960208301846130b5565b9392505050565b7f546f6b656e20494420616c726561647920657869737473000000000000000000600082015250565b6000613776601783612ff2565b915061378182613740565b602082019050919050565b600060208201905081810360008301526137a581613769565b9050919050565b7f4e487b7100000000000000000000000000000000000000000000000000000000600052602260045260246000fd5b600060028204905060018216806137f357607f821691505b602082108103613806576138056137ac565b5b50919050565b60008190508160005260206000209050919050565b60006020601f8301049050919050565b600082821b905092915050565b60006008830261386e7fffffffffffffffffffffffffffffffffffffffffffffffffffffffffffffffff82613831565b6138788683613831565b95508019841693508086168417925050509392505050565b6000819050919050565b60006138b56138b06138ab84612cee565b613890565b612cee565b9050919050565b6000819050919050565b6138cf8361389a565b6138e36138db826138bc565b84845461383e565b825550505050565b600090565b6138f86138eb565b6139038184846138c6565b505050565b5b818110156139275761391c6000826138f0565b600181019050613909565b5050565b601f82111561396c5761393d8161380c565b61394684613821565b81016020851015613955578190505b61396961396185613821565b830182613908565b50505b505050565b600082821c905092915050565b600061398f60001984600802613971565b1980831691505092915050565b60006139a8838361397e565b9150826002028217905092915050565b6139c182612fe7565b67ffffffffffffffff8111156139da576139d9612e4d565b5b6139e482546137db565b6139ef82828561392b565b600060209050601f831160018114613a225760008415613a10578287015190505b613a1a858261399c565b865550613a82565b601f198416613a308661380c565b60005b82811015613a5857848901518255600182019150602085019450602081019050613a33565b86831015613a755784890151613a71601f89168261397e565b8355505b6001600288020188555050505b505050505050565b600081905092915050565b6000613aa082612fe7565b613aaa8185613a8a565b9350613aba818560208601613003565b80840191505092915050565b6000613ad28284613a95565b915081905092915050565b6000604082019050613af260008301856130b5565b8181036020830152613b04818461302d565b90509392505050565b7f4552433732313a20617070726f76616c20746f2063757272656e74206f776e6560008201527f7200000000000000000000000000000000000000000000000000000000000000602082015250565b6000613b69602183612ff2565b9150613b7482613b0d565b604082019050919050565b60006020820190508181036000830152613b9881613b5c565b9050919050565b7f4552433732313a20617070726f76652063616c6c6572206973206e6f7420746f60008201527f6b656e206f776e6572206f7220617070726f76656420666f7220616c6c000000602082015250565b6000613bfb603d83612ff2565b9150613c0682613b9f565b604082019050919050565b60006020820190508181036000830152613c2a81613bee565b9050919050565b7f4552433732313a2063616c6c6572206973206e6f7420746f6b656e206f776e6560008201527f72206f7220617070726f76656400000000000000000000000000000000000000602082015250565b6000613c8d602d83612ff2565b9150613c9882613c31565b604082019050919050565b60006020820190508181036000830152613cbc81613c80565b9050919050565b7f455243373231456e756d657261626c653a206f776e657220696e646578206f7560008201527f74206f6620626f756e6473000000000000000000000000000000000000000000602082015250565b6000613d1f602b83612ff2565b9150613d2a82613cc3565b604082019050919050565b60006020820190508181036000830152613d4e81613d12565b9050919050565b7f4e487b7100000000000000000000000000000000000000000000000000000000600052603260045260246000fd5b7f4e487b7100000000000000000000000000000000000000000000000000000000600052601160045260246000fd5b6000613dbe82612cee565b91507fffffffffffffffffffffffffffffffffffffffffffffffffffffffffffffffff8203613df057613def613d84565b5b600182019050919050565b7f455243373231456e756d657261626c653a20676c6f62616c20696e646578206f60008201527f7574206f6620626f756e64730000000000000000000000000000000000000000602082015250565b6000613e57602c83612ff2565b9150613e6282613dfb565b604082019050919050565b60006020820190508181036000830152613e8681613e4a565b9050919050565b7f4552433732313a20696e76616c696420746f6b656e2049440000000000000000600082015250565b6000613ec3601883612ff2565b9150613ece82613e8d565b602082019050919050565b60006020820190508181036000830152613ef281613eb6565b9050919050565b7f4552433732313a2061646472657373207a65726f206973206e6f74206120766160008201527f6c6964206f776e65720000000000000000000000000000000000000000000000602082015250565b6000613f55602983612ff2565b9150613f6082613ef9565b604082019050919050565b60006020820190508181036000830152613f8481613f48565b9050919050565b6000613f978385613a8a565b9350613fa4838584612ef9565b82840190509392505050565b6000613fbd828486613f8b565b91508190509392505050565b6000613fd58285613a95565b9150613fe18284613a95565b91508190509392505050565b7f5469636b656e3a205469636b657420616c7265616479207363616e6e6564206f60008201527f7220657870697265640000000000000000000000000000000000000000000000602082015250565b6000614049602983612ff2565b915061405482613fed565b604082019050919050565b600060208201905081810360008301526140788161403c565b9050919050565b7f4f776e61626c653a206e6577206f776e657220697320746865207a65726f206160008201527f6464726573730000000000000000000000000000000000000000000000000000602082015250565b60006140db602683612ff2565b91506140e68261407f565b604082019050919050565b6000602082019050818103600083015261410a816140ce565b9050919050565b7f5061757361626c653a2070617573656400000000000000000000000000000000600082015250565b6000614147601083612ff2565b915061415282614111565b602082019050919050565b600060208201905081810360008301526141768161413a565b9050919050565b7f4f776e61626c653a2063616c6c6572206973206e6f7420746865206f776e6572600082015250565b60006141b3602083612ff2565b91506141be8261417d565b602082019050919050565b600060208201905081810360008301526141e2816141a6565b9050919050565b7f4552433732313a207472616e7366657220746f206e6f6e20455243373231526560008201527f63656976657220696d706c656d656e7465720000000000000000000000000000602082015250565b6000614245603283612ff2565b9150614250826141e9565b604082019050919050565b6000602082019050818103600083015261427481614238565b9050919050565b7f4552433732313a207472616e736665722066726f6d20696e636f72726563742060008201527f6f776e6572000000000000000000000000000000000000000000000000000000602082015250565b60006142d7602583612ff2565b91506142e28261427b565b604082019050919050565b60006020820190508181036000830152614306816142ca565b9050919050565b7f4552433732313a207472616e7366657220746f20746865207a65726f2061646460008201527f7265737300000000000000000000000000000000000000000000000000000000602082015250565b6000614369602483612ff2565b91506143748261430d565b604082019050919050565b600060208201905081810360008301526143988161435c565b9050919050565b7f4552433732313a20617070726f766520746f2063616c6c657200000000000000600082015250565b60006143d5601983612ff2565b91506143e08261439f565b602082019050919050565b60006020820190508181036000830152614404816143c8565b9050919050565b7f4e487b7100000000000000000000000000000000000000000000000000000000600052601260045260246000fd5b600081519050919050565b600082825260208201905092915050565b60006144618261443a565b61446b8185614445565b935061447b818560208601613003565b61448481612e3c565b840191505092915050565b60006080820190506144a460008301876130b5565b6144b160208301866130b5565b6144be604083018561311f565b81810360608301526144d08184614456565b905095945050505050565b6000815190506144ea81612da3565b92915050565b60006020828403121561450657614505612c86565b5b6000614514848285016144db565b91505092915050565b7f455243373231456e756d657261626c653a20636f6e736563757469766520747260008201527f616e7366657273206e6f7420737570706f727465640000000000000000000000602082015250565b6000614579603583612ff2565b91506145848261451d565b604082019050919050565b600060208201905081810360008301526145a88161456c565b9050919050565b7f4552433732313a206d696e7420746f20746865207a65726f2061646472657373600082015250565b60006145e5602083612ff2565b91506145f0826145af565b602082019050919050565b60006020820190508181036000830152614614816145d8565b9050919050565b7f4552433732313a20746f6b656e20616c7265616479206d696e74656400000000600082015250565b6000614651601c83612ff2565b915061465c8261461b565b602082019050919050565b6000602082019050818103600083015261468081614644565b9050919050565b600061469282612cee565b915061469d83612cee565b92508282039050818111156146b5576146b4613d84565b5b92915050565b7f4e487b7100000000000000000000000000000000000000000000000000000000600052603160045260246000fdfea264697066735822122022bad263fbe1d7408197587351f5d7823f07c16f6f07903761e0fb9e8d4ec37064736f6c63430008130033",
  "immutableReferences": {},
  "source": "// SPDX-License-Identifier: MIT\npragma solidity >=0.4.22 <0.9.0;\n\nimport \"../node_modules/@openzeppelin/contracts/utils/Counters.sol\";\nimport \"../node_modules/@openzeppelin/contracts/access/Ownable.sol\";\nimport \"../node_modules/@openzeppelin/contracts/security/Pausable.sol\";\nimport \"../node_modules/@openzeppelin/contracts/token/ERC721/extensions/ERC721Enumerable.sol\";\n\ncontract TickenEvent is ERC721Enumerable, Pausable, Ownable {\n    /************************* Ticket ************************/\n    struct Ticket {\n        address owner;\n        Status status;\n        string section;\n        uint256 tokenID;\n    }\n\n    enum Status {\n        // Issues represents the state of the  ticket right\n        // after it is \"issued\". Tickets in this state can\n        // be scanned\n        ISSUED,\n\n        // TicketStatusScanned represents the state of the\n        // ticket after it is \"scanned\". Important that this\n        // is not  done in the same moment the scanning occurs,\n        // this state is done on batch\n        SCANNED\n    }\n    /*********************************************************/\n\n    /******************** Event State ************************/\n    // this variable indicates if the event is currently with\n    // tickets on sale (\"anchored\") or not. While the event is\n    // anchored, all tickets can only be traded by Ticken\n    // (contract owner) or using the sell/buy ticket methods.\n    // When the event becomes not anchored, all tickets are\n    // free to be traded as NFT's\n    bool private _anchored;\n    /*********************************************************/\n\n    /********************* Chain Events **********************/\n    event TicketMinted(address owner, string section, uint256 indexed tokenID);\n    event TicketTransferred(address from, address to, uint256 indexed tokenID);\n    /*********************************************************/\n\n    /**************** Mappings & Counters ********************/\n    using Counters for Counters.Counter;\n\n    // Mapping from token ID to tickets\n    mapping(uint256 => Ticket) public tickets;\n\n    // Mapping from section to tokenIDs\n    mapping(string => uint256[]) private _ticketsBySection;\n\n    // Count the number of tickets issued\n    Counters.Counter private _ticketsCounter;\n    /*********************************************************/\n\n\n    constructor() ERC721(\"TickenEvent\", \"TCK\") {\n        _anchored = true;\n    }\n\n    /*********************************************************\n     * mintTicket mint a ticket for the event in the section\n     * passed by parameters. It fails if there is a ticket\n     * already minted with this tokenID\n     *\n     * @params:\n     * - address to      -> address of the ticket owner\n     * - uint256 tokenID -> ticket ID in the blockchain\n     * - string  section -> section of thw event where the ticket\n     *                      is valid\n     *\n     * return: none\n     *********************************************************/\n    function raiseAnchors() public whenNotPaused onlyOwner {\n        _anchored = false;\n    }\n\n    /*********************************************************\n     * totalTickets returns the amount of tickets emitted\n     * for the event up to the moment of the call\n     *\n     * params: none\n     * return: uint\n     *********************************************************/\n    function totalTickets() public view returns (uint count) {\n        return _ticketsCounter.current();\n    }\n\n\n    /*********************************************************\n     * mintTicket mint a ticket for the event in the section\n     * passed by parameters. It fails if there is a ticket\n     * already minted with this tokenID\n     *\n     * @params:\n     * - address to      -> address of the ticket owner\n     * - uint256 tokenID -> ticket ID in the blockchain\n     * - string  section -> section of thw event where the ticket\n     *                      is valid\n     *\n     * return: none\n     *********************************************************/\n    function mintTicket(address to, uint256 tokenID, string memory section) public whenNotPaused onlyOwner {\n        require(!_exists(tokenID), \"Token ID already exists\");\n\n        // links the token ID (ticket ID)\n        // to owner address\n        _safeMint(to, tokenID);\n\n        tickets[tokenID] = Ticket({\n            owner: to,\n            section: section,\n            tokenID: tokenID,\n            status: Status.ISSUED\n        });\n\n        _ticketsCounter.increment();\n        _ticketsBySection[section].push(tokenID);\n\n        emit TicketMinted(to, section, tokenID);\n    }\n\n\n    /*********************************************************\n     * mintTicket mint a ticket for the event in the section\n     * passed by parameters. It fails if there is a ticket\n     * already minted with this tokenID\n     *\n     * @params:\n     * - address to      -> address of the ticket owner\n     * - uint256 tokenID -> ticket ID in the blockchain\n     * - string  section -> section of thw event where the ticket\n     *                      is valid\n     *\n     * return: none\n     *********************************************************/\n    function transferTicket(address from, address to, uint256 tokenID) public whenNotPaused {\n        // we are going to restric this method only\n        // for the contract owners (Ticken) while the\n        // tickets are avaiable to buy. After that, this\n        // method becomes free to every user to tranfer\n        // their tickets as NFTs\n        if (_anchored) {\n            _checkOwner();\n            _safeTransfer(from, to, tokenID, \"\");\n        } else {\n            safeTransferFrom(from, to, tokenID);\n        }\n\n        tickets[tokenID].owner = to;\n\n        emit TicketTransferred(from, to, tokenID);\n    }\n\n\n    /*********************************************************\n     * scanBatch mark as scaneed all tickets passed by parameter.\n     * It failes if one of the tokens is not is \"issued\" state.\n     *\n     * @params:\n     * - uint256[] tokenIDs -> list of all tokens to be scanned\n     *\n     * return: none\n     *********************************************************/\n    function scanBatch(uint256[] calldata tokenIDs) public whenNotPaused onlyOwner {        \n        for (uint256 i = 0; i < tokenIDs.length; i++) {\n            require(\n                tickets[tokenIDs[i]].status == Status.ISSUED, \n                \"Ticken: Ticket already scanned or expired\"\n            );\n            \n            tickets[tokenIDs[i]].status = Status.SCANNED;\n        }\n    }\n    \n\n    /*********************************************************\n     * getSectionTickets returns all tickets of the section\n     * passed by parameters. It will return empty list if there\n     * is no tickets for this section\n     *\n     * @params:\n     * - string  section -> section of the event\n     *\n     * return: TicketDTO array\n     *********************************************************/\n    function getSectionTickets(string calldata section) public view returns (Ticket[] memory) {\n        uint256[] memory sectionTokenIDs = _ticketsBySection[section];\n        Ticket[] memory _tickets = new Ticket[](sectionTokenIDs.length);\n\n        for (uint256 i = 0; i < sectionTokenIDs.length; i++) {\n            _tickets[i] = tickets[sectionTokenIDs[i]];\n        }\n\n        return _tickets;\n    }\n\n\n    /*********************************************************\n     * getTicketsOwnedBy returns all tickets owned by the owner\n     * passed by parameters. It will return empty list if there\n     * is no tickets for this owner\n     *\n     * @params:\n     * - address owner -> ticket owner\n     *\n     * return: TicketDTO array\n     *********************************************************/\n    function getTicketsOwnedBy(address owner) public view returns (Ticket[] memory) {\n        uint256 ownerTokenCount = balanceOf(owner);\n        Ticket[] memory _tickets = new Ticket[](ownerTokenCount);\n\n        for (uint256 i; i < ownerTokenCount; i++) {\n            _tickets[i] = tickets[tokenOfOwnerByIndex(owner, i)];\n        }\n\n        return _tickets;\n    }\n}\n",
  "sourcePath": "/home/runner/work/ticken-contracts/ticken-contracts/main/ethereum/contracts/TickenEvent.sol",
  "compiler": {
    "name": "solc",
    "version": "0.8.19+commit.7dd6d404.Emscripten.clang"
  },
  "schemaVersion": "3.4.13",
  "updatedAt": "2023-04-17T22:58:44.116Z",
  "devdoc": {
    "events": {
      "Approval(address,address,uint256)": {
        "details": "Emitted when `owner` enables `approved` to manage the `tokenId` token."
      },
      "ApprovalForAll(address,address,bool)": {
        "details": "Emitted when `owner` enables or disables (`approved`) `operator` to manage all of its assets."
      },
      "Paused(address)": {
        "details": "Emitted when the pause is triggered by `account`."
      },
      "Transfer(address,address,uint256)": {
        "details": "Emitted when `tokenId` token is transferred from `from` to `to`."
      },
      "Unpaused(address)": {
        "details": "Emitted when the pause is lifted by `account`."
      }
    },
    "kind": "dev",
    "methods": {
      "approve(address,uint256)": {
        "details": "See {IERC721-approve}."
      },
      "balanceOf(address)": {
        "details": "See {IERC721-balanceOf}."
      },
      "getApproved(uint256)": {
        "details": "See {IERC721-getApproved}."
      },
      "isApprovedForAll(address,address)": {
        "details": "See {IERC721-isApprovedForAll}."
      },
      "name()": {
        "details": "See {IERC721Metadata-name}."
      },
      "owner()": {
        "details": "Returns the address of the current owner."
      },
      "ownerOf(uint256)": {
        "details": "See {IERC721-ownerOf}."
      },
      "paused()": {
        "details": "Returns true if the contract is paused, and false otherwise."
      },
      "renounceOwnership()": {
        "details": "Leaves the contract without owner. It will not be possible to call `onlyOwner` functions anymore. Can only be called by the current owner. NOTE: Renouncing ownership will leave the contract without an owner, thereby removing any functionality that is only available to the owner."
      },
      "safeTransferFrom(address,address,uint256)": {
        "details": "See {IERC721-safeTransferFrom}."
      },
      "safeTransferFrom(address,address,uint256,bytes)": {
        "details": "See {IERC721-safeTransferFrom}."
      },
      "setApprovalForAll(address,bool)": {
        "details": "See {IERC721-setApprovalForAll}."
      },
      "supportsInterface(bytes4)": {
        "details": "See {IERC165-supportsInterface}."
      },
      "symbol()": {
        "details": "See {IERC721Metadata-symbol}."
      },
      "tokenByIndex(uint256)": {
        "details": "See {IERC721Enumerable-tokenByIndex}."
      },
      "tokenOfOwnerByIndex(address,uint256)": {
        "details": "See {IERC721Enumerable-tokenOfOwnerByIndex}."
      },
      "tokenURI(uint256)": {
        "details": "See {IERC721Metadata-tokenURI}."
      },
      "totalSupply()": {
        "details": "See {IERC721Enumerable-totalSupply}."
      },
      "transferFrom(address,address,uint256)": {
        "details": "See {IERC721-transferFrom}."
      },
      "transferOwnership(address)": {
        "details": "Transfers ownership of the contract to a new account (`newOwner`). Can only be called by the current owner."
      }
    },
    "version": 1
  },
  "userdoc": {
    "kind": "user",
    "methods": {},
    "version": 1
  }
}